{
  "abi": [
    {
      "type": "constructor",
      "inputs": [
        {
          "name": "_minDonation",
          "type": "uint256",
          "internalType": "uint256"
        },
        {
          "name": "_balancerRouter",
          "type": "address",
          "internalType": "address"
        },
        {
          "name": "_balancerVaultAdmin",
          "type": "address",
          "internalType": "address"
        },
        {
          "name": "_poolId",
          "type": "address",
          "internalType": "address"
        },
        {
          "name": "_assetsInPool",
          "type": "uint256",
          "internalType": "uint256"
        },
        {
          "name": "_incentiveTokenAddress",
          "type": "address",
          "internalType": "address"
        },
        {
          "name": "_incentiveTokenIndex",
          "type": "uint256",
          "internalType": "uint256"
        },
        {
          "name": "_wethIndex",
          "type": "uint256",
          "internalType": "uint256"
        },
        {
          "name": "_availableRewards",
          "type": "uint256",
          "internalType": "uint256"
        },
        {
          "name": "_roundLength",
          "type": "uint256",
          "internalType": "uint256"
        }
      ],
      "stateMutability": "nonpayable"
    },
    {
      "type": "function",
      "name": "MINIMUM_BALANCE_DONATION_AMOUNT",
      "inputs": [],
      "outputs": [
        {
          "name": "",
          "type": "uint256",
          "internalType": "uint256"
        }
      ],
      "stateMutability": "view"
    },
    {
      "type": "function",
      "name": "assetsInPool",
      "inputs": [],
      "outputs": [
        {
          "name": "",
          "type": "uint256",
          "internalType": "uint256"
        }
      ],
      "stateMutability": "view"
    },
    {
      "type": "function",
      "name": "balancerRouter",
      "inputs": [],
      "outputs": [
        {
          "name": "",
          "type": "address",
          "internalType": "address"
        }
      ],
      "stateMutability": "view"
    },
    {
      "type": "function",
      "name": "balancerVaultAdmin",
      "inputs": [],
      "outputs": [
        {
          "name": "",
          "type": "address",
          "internalType": "address"
        }
      ],
      "stateMutability": "view"
    },
    {
      "type": "function",
      "name": "changeOwner",
      "inputs": [
        {
          "name": "newOwner",
          "type": "address",
          "internalType": "address"
        }
      ],
      "outputs": [],
      "stateMutability": "nonpayable"
    },
    {
      "type": "function",
      "name": "changeParams",
      "inputs": [
        {
          "name": "newRoundRewards",
          "type": "uint256",
          "internalType": "uint256"
        },
        {
          "name": "newRoundLength",
          "type": "uint256",
          "internalType": "uint256"
        },
        {
          "name": "minDonation",
          "type": "uint256",
          "internalType": "uint256"
        }
      ],
      "outputs": [],
      "stateMutability": "nonpayable"
    },
    {
      "type": "function",
      "name": "claim",
      "inputs": [],
      "outputs": [],
      "stateMutability": "nonpayable"
    },
    {
      "type": "function",
      "name": "claimable",
      "inputs": [
        {
          "name": "account",
          "type": "address",
          "internalType": "address"
        }
      ],
      "outputs": [
        {
          "name": "",
          "type": "uint256",
          "internalType": "uint256"
        }
      ],
      "stateMutability": "view"
    },
    {
      "type": "function",
      "name": "currentRound",
      "inputs": [],
      "outputs": [
        {
          "name": "",
          "type": "uint256",
          "internalType": "uint256"
        }
      ],
      "stateMutability": "view"
    },
    {
      "type": "function",
      "name": "donate",
      "inputs": [],
      "outputs": [],
      "stateMutability": "payable"
    },
    {
      "type": "function",
      "name": "endRound",
      "inputs": [],
      "outputs": [],
      "stateMutability": "nonpayable"
    },
    {
      "type": "function",
      "name": "epochDonationActivities",
      "inputs": [
        {
          "name": "",
          "type": "address",
          "internalType": "address"
        }
      ],
      "outputs": [
        {
          "name": "",
          "type": "uint256",
          "internalType": "uint256"
        }
      ],
      "stateMutability": "view"
    },
    {
      "type": "function",
      "name": "estimateTicketPercentage",
      "inputs": [
        {
          "name": "donation",
          "type": "uint256",
          "internalType": "uint256"
        }
      ],
      "outputs": [
        {
          "name": "",
          "type": "uint256",
          "internalType": "uint256"
        }
      ],
      "stateMutability": "view"
    },
    {
      "type": "function",
      "name": "getAllocatedIncentives",
      "inputs": [],
      "outputs": [
        {
          "name": "allocatedRewards",
          "type": "uint256",
          "internalType": "uint256"
        }
      ],
      "stateMutability": "view"
    },
    {
      "type": "function",
      "name": "getBlocksSinceRoundEnd",
      "inputs": [],
      "outputs": [
        {
          "name": "",
          "type": "uint256",
          "internalType": "uint256"
        }
      ],
      "stateMutability": "view"
    },
    {
      "type": "function",
      "name": "getCurrentShare",
      "inputs": [
        {
          "name": "account",
          "type": "address",
          "internalType": "address"
        }
      ],
      "outputs": [
        {
          "name": "",
          "type": "uint256",
          "internalType": "uint256"
        }
      ],
      "stateMutability": "view"
    },
    {
      "type": "function",
      "name": "getGameState",
      "inputs": [
        {
          "name": "user",
          "type": "address",
          "internalType": "address"
        }
      ],
      "outputs": [
        {
          "name": "state",
          "type": "tuple",
          "internalType": "struct GameState",
          "components": [
            {
              "name": "roundLength",
              "type": "uint256",
              "internalType": "uint256"
            },
            {
              "name": "currentRound",
              "type": "uint256",
              "internalType": "uint256"
            },
            {
              "name": "roundEndBlock",
              "type": "uint256",
              "internalType": "uint256"
            },
            {
              "name": "minimumDonation",
              "type": "uint256",
              "internalType": "uint256"
            },
            {
              "name": "blocksRemaining",
              "type": "uint256",
              "internalType": "uint256"
            },
            {
              "name": "roundRewards",
              "type": "uint256",
              "internalType": "uint256"
            },
            {
              "name": "totalDonated",
              "type": "uint256",
              "internalType": "uint256"
            },
            {
              "name": "totalClaimed",
              "type": "uint256",
              "internalType": "uint256"
            },
            {
              "name": "incentiveBalance",
              "type": "uint256",
              "internalType": "uint256"
            },
            {
              "name": "userCurrentDonation",
              "type": "uint256",
              "internalType": "uint256"
            },
            {
              "name": "userCurrentShare",
              "type": "uint256",
              "internalType": "uint256"
            },
            {
              "name": "userClaimable",
              "type": "uint256",
              "internalType": "uint256"
            },
            {
              "name": "hasClaimed",
              "type": "bool",
              "internalType": "bool"
            },
            {
              "name": "canPlayGame",
              "type": "bool",
              "internalType": "bool"
            }
          ]
        }
      ],
      "stateMutability": "view"
    },
    {
      "type": "function",
      "name": "getMultisigNonces",
      "inputs": [
        {
          "name": "multisig",
          "type": "address",
          "internalType": "address"
        }
      ],
      "outputs": [
        {
          "name": "nonces",
          "type": "uint256[]",
          "internalType": "uint256[]"
        }
      ],
      "stateMutability": "view"
    },
    {
      "type": "function",
      "name": "getRemainingRoundLength",
      "inputs": [],
      "outputs": [
        {
          "name": "remainingRoundLength",
          "type": "uint256",
          "internalType": "uint256"
        }
      ],
      "stateMutability": "view"
    },
    {
      "type": "function",
      "name": "getRoundProgress",
      "inputs": [],
      "outputs": [
        {
          "name": "",
          "type": "uint256",
          "internalType": "uint256"
        }
      ],
      "stateMutability": "view"
    },
    {
      "type": "function",
      "name": "incentiveTokenAddress",
      "inputs": [],
      "outputs": [
        {
          "name": "",
          "type": "address",
          "internalType": "address"
        }
      ],
      "stateMutability": "view"
    },
    {
      "type": "function",
      "name": "incentiveTokenIndex",
      "inputs": [],
      "outputs": [
        {
          "name": "",
          "type": "uint256",
          "internalType": "uint256"
        }
      ],
      "stateMutability": "view"
    },
    {
      "type": "function",
      "name": "isRatioPass",
      "inputs": [
        {
          "name": "curNonces",
          "type": "uint256[]",
          "internalType": "uint256[]"
        },
        {
          "name": "lastNonces",
          "type": "uint256[]",
          "internalType": "uint256[]"
        },
        {
          "name": "",
          "type": "uint256",
          "internalType": "uint256"
        }
      ],
      "outputs": [
        {
          "name": "ratioPass",
          "type": "bool",
          "internalType": "bool"
        }
      ],
      "stateMutability": "view"
    },
    {
      "type": "function",
      "name": "owner",
      "inputs": [],
      "outputs": [
        {
          "name": "",
          "type": "address",
          "internalType": "address"
        }
      ],
      "stateMutability": "view"
    },
    {
      "type": "function",
      "name": "paramsUpdateRequested",
      "inputs": [],
      "outputs": [
        {
          "name": "",
          "type": "bool",
          "internalType": "bool"
        }
      ],
      "stateMutability": "view"
    },
    {
      "type": "function",
      "name": "permit2",
      "inputs": [],
      "outputs": [
        {
          "name": "",
          "type": "address",
          "internalType": "address"
        }
      ],
      "stateMutability": "view"
    },
    {
      "type": "function",
      "name": "poolId",
      "inputs": [],
      "outputs": [
        {
          "name": "",
          "type": "address",
          "internalType": "address"
        }
      ],
      "stateMutability": "view"
    },
    {
      "type": "function",
      "name": "roundPoints",
      "inputs": [
        {
          "name": "",
          "type": "uint256",
          "internalType": "uint256"
        }
      ],
      "outputs": [
        {
          "name": "availableRewards",
          "type": "uint256",
          "internalType": "uint256"
        },
        {
          "name": "totalDonated",
          "type": "uint256",
          "internalType": "uint256"
        },
        {
          "name": "totalClaimed",
          "type": "uint256",
          "internalType": "uint256"
        },
        {
          "name": "length",
          "type": "uint256",
          "internalType": "uint256"
        },
        {
          "name": "minDonation",
          "type": "uint256",
          "internalType": "uint256"
        },
        {
          "name": "endBlock",
          "type": "uint256",
          "internalType": "uint256"
        }
      ],
      "stateMutability": "view"
    },
    {
      "type": "function",
      "name": "roundToClaimed",
      "inputs": [
        {
          "name": "",
          "type": "uint256",
          "internalType": "uint256"
        },
        {
          "name": "",
          "type": "address",
          "internalType": "address"
        }
      ],
      "outputs": [
        {
          "name": "",
          "type": "uint256",
          "internalType": "uint256"
        }
      ],
      "stateMutability": "view"
    },
    {
      "type": "function",
      "name": "roundToDonations",
      "inputs": [
        {
          "name": "",
          "type": "uint256",
          "internalType": "uint256"
        },
        {
          "name": "",
          "type": "address",
          "internalType": "address"
        }
      ],
      "outputs": [
        {
          "name": "",
          "type": "uint256",
          "internalType": "uint256"
        }
      ],
      "stateMutability": "view"
    },
    {
      "type": "function",
      "name": "topUpIncentiveBalance",
      "inputs": [
        {
          "name": "amount",
          "type": "uint256",
          "internalType": "uint256"
        }
      ],
      "outputs": [],
      "stateMutability": "nonpayable"
    },
    {
      "type": "function",
      "name": "wethIndex",
      "inputs": [],
      "outputs": [
        {
          "name": "",
          "type": "uint256",
          "internalType": "uint256"
        }
      ],
      "stateMutability": "view"
    },
    {
      "type": "function",
      "name": "withdrawIncentiveTokenBalance",
      "inputs": [],
      "outputs": [],
      "stateMutability": "nonpayable"
    },
    {
      "type": "event",
      "name": "AuctionEnded",
      "inputs": [
        {
          "name": "roundCounter",
          "type": "uint256",
          "indexed": true,
          "internalType": "uint256"
        },
        {
          "name": "totalRoundDonations",
          "type": "uint256",
          "indexed": true,
          "internalType": "uint256"
        },
        {
          "name": "totalRoundClaimed",
          "type": "uint256",
          "indexed": true,
          "internalType": "uint256"
        },
        {
          "name": "availableRewards",
          "type": "uint256",
          "indexed": false,
          "internalType": "uint256"
        }
      ],
      "anonymous": false
    },
    {
      "type": "event",
      "name": "DonationReceived",
      "inputs": [
        {
          "name": "donatorAddress",
          "type": "address",
          "indexed": true,
          "internalType": "address"
        },
        {
          "name": "amount",
          "type": "uint256",
          "indexed": true,
          "internalType": "uint256"
        }
      ],
      "anonymous": false
    },
    {
      "type": "event",
      "name": "EthDonatedToBalancer",
      "inputs": [
        {
          "name": "amount",
          "type": "uint256",
          "indexed": true,
          "internalType": "uint256"
        }
      ],
      "anonymous": false
    },
    {
      "type": "event",
      "name": "OwnerUpdated",
      "inputs": [
        {
          "name": "owner",
          "type": "address",
          "indexed": true,
          "internalType": "address"
        }
      ],
      "anonymous": false
    },
    {
      "type": "event",
      "name": "ParamsUpdated",
      "inputs": [
        {
          "name": "nextRound",
          "type": "uint256",
          "indexed": true,
          "internalType": "uint256"
        },
        {
          "name": "availableRewards",
          "type": "uint256",
          "indexed": false,
          "internalType": "uint256"
        },
        {
          "name": "roundLength",
          "type": "uint256",
          "indexed": false,
          "internalType": "uint256"
        },
        {
          "name": "minDonation",
          "type": "uint256",
          "indexed": false,
          "internalType": "uint256"
        }
      ],
      "anonymous": false
    },
    {
      "type": "event",
      "name": "RewardsClaimed",
      "inputs": [
        {
          "name": "donatorAddress",
          "type": "address",
          "indexed": true,
          "internalType": "address"
        },
        {
          "name": "amount",
          "type": "uint256",
          "indexed": true,
          "internalType": "uint256"
        }
      ],
      "anonymous": false
    },
    {
      "type": "event",
      "name": "TopUpIncentiveReceived",
      "inputs": [
        {
          "name": "amount",
          "type": "uint256",
          "indexed": true,
          "internalType": "uint256"
        }
      ],
      "anonymous": false
    },
    {
      "type": "event",
      "name": "TopUpIncentiveWithdrawn",
      "inputs": [
        {
          "name": "amount",
          "type": "uint256",
          "indexed": true,
          "internalType": "uint256"
        }
      ],
      "anonymous": false
    },
    {
      "type": "event",
      "name": "UnclaimedIncentiveTokensDonated",
      "inputs": [
        {
          "name": "amount",
          "type": "uint256",
          "indexed": true,
          "internalType": "uint256"
        }
      ],
      "anonymous": false
    },
    {
      "type": "error",
      "name": "NoAvailableIncentiveBalance",
      "inputs": []
    },
    {
      "type": "error",
      "name": "TokenTransferFailed",
      "inputs": [
        {
          "name": "token",
          "type": "address",
          "internalType": "address"
        },
        {
          "name": "from",
          "type": "address",
          "internalType": "address"
        },
        {
          "name": "to",
          "type": "address",
          "internalType": "address"
        },
        {
          "name": "value",
          "type": "uint256",
          "internalType": "uint256"
        }
      ]
    }
  ],
  "bytecode": "0x6101a0604052620f424060805260015f819055600255348015610020575f5ffd5b506040516130a13803806130a183398101604081905261003f91610215565b6001600160a01b03808a16610120528881166101408190528882166101605260a08890529086166101005260c085905260e084905260408051630716585d60e51b8152905163e2cb0ba0916004808201926020929091908290030181865afa1580156100ad573d5f5f3e3d5ffd5b505050506040513d601f19601f820116820180604052508101906100d191906102a4565b60808181525050886001600160a01b0316631bbf2e236040518163ffffffff1660e01b8152600401602060405180830381865afa158015610114573d5f5f3e3d5ffd5b505050506040513d601f19601f8201168201806040525081019061013891906102bb565b6001600160a01b03166101805260056020527f1471eb6eb2c5e789fc3de43f8ce62938c7d1836ec861730447e2ada8fd81017b919091557f1471eb6eb2c5e789fc3de43f8ce62938c7d1836ec861730447e2ada8fd81017e555050507f1471eb6eb2c5e789fc3de43f8ce62938c7d1836ec861730447e2ada8fd81017f9490945550505f80525050437f05b8ccbb9d4d8fb16ea74ce3c29a41f1b461fbdaff4714a0d9a8eb05499746c155600180546001600160a01b031916331790556102db565b80516001600160a01b0381168114610210575f5ffd5b919050565b5f5f5f5f5f5f5f5f5f5f6101408b8d03121561022f575f5ffd5b8a51995061023f60208c016101fa565b985061024d60408c016101fa565b975061025b60608c016101fa565b60808c0151909750955061027160a08c016101fa565b60c08c015160e08d01516101008e0151610120909e01519c9f9b9e50999c989b979a919990989097909650945092505050565b5f602082840312156102b4575f5ffd5b5051919050565b5f602082840312156102cb575f5ffd5b6102d4826101fa565b9392505050565b60805160a05160c05160e0516101005161012051610140516101605161018051612cb96103e85f395f8181610231015281816121f1015281816122c7015261237801525f8181610351015281816124ee01526126b401525f61068a01525f8181610407015281816123c0015281816124bf015261268501525f81816102b801528181610b0e01528181610d1701528181610dce01528181611171015281816113430152818161191a01528181611d460152818161221f015281816122f6015261239f01525f8181610514015261260e01525f81816102eb015261217a01525f81816103a30152818161211301526125a701525f818161031e015281816120dc015261257b0152612cb95ff3fe6080604052600436106101f5575f3560e01c80638515697a11610117578063b2cb3a9b116100ac578063c9a97ec81161007c578063d9d60b5211610062578063d9d60b52146106f7578063ed88c68e14610723578063f0cf14f41461072b575f5ffd5b8063c9a97ec8146106ac578063d564c4bf146106cb575f5ffd5b8063b2cb3a9b146105cb578063b99ab0ad146105ea578063bb85204214610665578063bc5df1aa14610679575f5ffd5b80638da5cb5b116100e75780638da5cb5b146105365780638f1f6bc7146105625780639c89ae3814610598578063a6f9dae1146105ac575f5ffd5b80638515697a146104b157806385de7ff6146104d05780638a19c8bc146104ef5780638c3e5a0614610503575f5ffd5b8063415ad1d71161018d5780634e71d92d1161015d5780634e71d92d1461045f57806360c1328614610475578063678c2c3e14610489578063749aa2d91461049d575f5ffd5b8063415ad1d714610392578063417da65a146103c557806349ec8b38146103f65780634d6180ae14610429575f5ffd5b8063318bf475116101c8578063318bf475146102da57806337b197901461030d5780633e0dc34e14610340578063402914f514610373575f5ffd5b8063118f4348146101f957806312261ee714610220578063184023a51461027857806320263e87146102a7575b5f5ffd5b348015610204575f5ffd5b5061020d610756565b6040519081526020015b60405180910390f35b34801561022b575f5ffd5b506102537f000000000000000000000000000000000000000000000000000000000000000081565b60405173ffffffffffffffffffffffffffffffffffffffff9091168152602001610217565b348015610283575f5ffd5b50610297610292366004612913565b610789565b6040519015158152602001610217565b3480156102b2575f5ffd5b506102537f000000000000000000000000000000000000000000000000000000000000000081565b3480156102e5575f5ffd5b5061020d7f000000000000000000000000000000000000000000000000000000000000000081565b348015610318575f5ffd5b5061020d7f000000000000000000000000000000000000000000000000000000000000000081565b34801561034b575f5ffd5b506102537f000000000000000000000000000000000000000000000000000000000000000081565b34801561037e575f5ffd5b5061020d61038d3660046129a9565b6107cf565b34801561039d575f5ffd5b5061020d7f000000000000000000000000000000000000000000000000000000000000000081565b3480156103d0575f5ffd5b506001546102979074010000000000000000000000000000000000000000900460ff1681565b348015610401575f5ffd5b506102537f000000000000000000000000000000000000000000000000000000000000000081565b348015610434575f5ffd5b5061020d6104433660046129c2565b600360209081525f928352604080842090915290825290205481565b34801561046a575f5ffd5b506104736108aa565b005b348015610480575f5ffd5b50610473610b6b565b348015610494575f5ffd5b5061020d610e3d565b3480156104a8575f5ffd5b50610473610ea1565b3480156104bc575f5ffd5b5061020d6104cb3660046129ec565b6110b8565b3480156104db575f5ffd5b506104736104ea3660046129ec565b6112d5565b3480156104fa575f5ffd5b5061020d5f5481565b34801561050e575f5ffd5b5061020d7f000000000000000000000000000000000000000000000000000000000000000081565b348015610541575f5ffd5b506001546102539073ffffffffffffffffffffffffffffffffffffffff1681565b34801561056d575f5ffd5b5061020d61057c3660046129c2565b600460209081525f928352604080842090915290825290205481565b3480156105a3575f5ffd5b5061020d611397565b3480156105b7575f5ffd5b506104736105c63660046129a9565b6113fb565b3480156105d6575f5ffd5b5061020d6105e53660046129a9565b611567565b3480156105f5575f5ffd5b506106386106043660046129ec565b600560208190525f918252604090912080546001820154600283015460038401546004850154949095015492949193909286565b604080519687526020870195909552938501929092526060840152608083015260a082015260c001610217565b348015610670575f5ffd5b5061020d6115cb565b348015610684575f5ffd5b506102537f000000000000000000000000000000000000000000000000000000000000000081565b3480156106b7575f5ffd5b506104736106c6366004612a03565b611644565b3480156106d6575f5ffd5b506106ea6106e53660046129a9565b61177c565b6040516102179190612a66565b348015610702575f5ffd5b506107166107113660046129a9565b6117e6565b6040516102179190612a78565b610473611b7b565b348015610736575f5ffd5b5061020d6107453660046129a9565b60066020525f908152604090205481565b5f60055f60015f546107689190612b59565b81526020019081526020015f2060050154436107849190612b59565b905090565b5f825f8151811061079c5761079c612b72565b6020026020010151845f815181106107b6576107b6612b72565b602002602001015111156107c8575060015b9392505050565b5f5f60015f546107df9190612b59565b5f81815260036020908152604080832073ffffffffffffffffffffffffffffffffffffffff881684528252808320548484526005909252909120600101549192509081158061082c575080155b1561083b57505f949350505050565b5f83815260046020908152604080832073ffffffffffffffffffffffffffffffffffffffff89168452909152902054801561087b57505f95945050505050565b5f8481526005602052604081205483906108959086612b9f565b61089f9190612bb6565b979650505050505050565b60025460011461091b576040517f08c379a000000000000000000000000000000000000000000000000000000000815260206004820152600f60248201527f5265656e7472616e63794775617264000000000000000000000000000000000060448201526064015b60405180910390fd5b600280555f805461092e90600190612b59565b5f81815260036020908152604080832033808552908352818420548585526005845282852060010154600485528386209286529190935292205492935091156109d3576040517f08c379a000000000000000000000000000000000000000000000000000000000815260206004820152600f60248201527f416c726561647920636c61696d656400000000000000000000000000000000006044820152606401610912565b5f8211610a3c576040517f08c379a000000000000000000000000000000000000000000000000000000000815260206004820152601160248201527f4e6f20646f6e6174696f6e20666f756e640000000000000000000000000000006044820152606401610912565b5f838152600560205260408120548290610a569085612b9f565b610a609190612bb6565b90505f8111610acb576040517f08c379a000000000000000000000000000000000000000000000000000000000815260206004820152601060248201527f4e6f7468696e6720746f20636c61696d000000000000000000000000000000006044820152606401610912565b5f8481526004602090815260408083203384528252808320849055868352600590915281206002018054839290610b03908490612bee565b90915550610b3490507f00000000000000000000000000000000000000000000000000000000000000003383611fd6565b604051819033907ffc30cddea38e2bf4d6ea7d3f9ed3b6ad7f176419f4963bd81318067a4aee73fe905f90a3505060016002555050565b600254600114610bd7576040517f08c379a000000000000000000000000000000000000000000000000000000000815260206004820152600f60248201527f5265656e7472616e6379477561726400000000000000000000000000000000006044820152606401610912565b600280819055505f3073ffffffffffffffffffffffffffffffffffffffff1663bb8520426040518163ffffffff1660e01b8152600401602060405180830381865afa158015610c28573d5f5f3e3d5ffd5b505050506040513d601f19601f82011682018060405250810190610c4c9190612c01565b60015490915073ffffffffffffffffffffffffffffffffffffffff163314610cd0576040517f08c379a000000000000000000000000000000000000000000000000000000000815260206004820152601460248201527f556e617574686f72697a6564206163636f756e740000000000000000000000006044820152606401610912565b6040517f70a082310000000000000000000000000000000000000000000000000000000081523060048201525f90829073ffffffffffffffffffffffffffffffffffffffff7f000000000000000000000000000000000000000000000000000000000000000016906370a0823190602401602060405180830381865afa158015610d5c573d5f5f3e3d5ffd5b505050506040513d601f19601f82011682018060405250810190610d809190612c01565b610d8a9190612b59565b9050805f03610dc5576040517f933ffd0a00000000000000000000000000000000000000000000000000000000815260040160405180910390fd5b600154610e0a907f00000000000000000000000000000000000000000000000000000000000000009073ffffffffffffffffffffffffffffffffffffffff1683611fd6565b60405181907fa0439bca775b7f749b09bd6b113c2498947cc75a6cd313b08284dd6da6db71aa905f90a250506001600255565b5f805481600581610e4f600185612b59565b81526020019081526020015f206005015443610e6b9190612b59565b5f83815260056020526040902060030154909150808210610e8f575f935050505090565b610e998282612b59565b935050505090565b600254600114610f0d576040517f08c379a000000000000000000000000000000000000000000000000000000000815260206004820152600f60248201527f5265656e7472616e6379477561726400000000000000000000000000000000006044820152606401610912565b600280555f805490610f20600183612b59565b5f8381526005602081905260408083206003015484845292200154919250610f4791612bee565b4311610faf576040517f08c379a000000000000000000000000000000000000000000000000000000000815260206004820152600e60248201527f526f756e64206e6f74206f7665720000000000000000000000000000000000006044820152606401610912565b610fb8816120a8565b610fc0612578565b5f610fcc836001612bee565b60015490915074010000000000000000000000000000000000000000900460ff16611023575f838152600560205260408082208054848452919092209081556003808301549082015560049182015491015561104c565b600180547fffffffffffffffffffffff00ffffffffffffffffffffffffffffffffffffffff1690555b5f8381526005602081815260408084204393810193909355848455858452808420600201549387905260018301549254905190815286917f6cd5fa5a40ecd594f53649fa439e8f39cb2abf70e69eb744d79b8553c7d19788910160405180910390a45050600160025550565b5f805480825260056020526040822060040154831015611134576040517f08c379a000000000000000000000000000000000000000000000000000000000815260206004820152601860248201527f4d696e696d756d20646f6e6174696f6e206e6f74206d657400000000000000006044820152606401610912565b5f81815260056020526040908190205490517f70a082310000000000000000000000000000000000000000000000000000000081523060048201527f000000000000000000000000000000000000000000000000000000000000000073ffffffffffffffffffffffffffffffffffffffff16906370a0823190602401602060405180830381865afa1580156111cb573d5f5f3e3d5ffd5b505050506040513d601f19601f820116820180604052508101906111ef9190612c01565b101561127d576040517f08c379a000000000000000000000000000000000000000000000000000000000815260206004820152602360248201527f4e6f7420656e6f756768207265776172647320746f20706c617920746865206760448201527f616d6500000000000000000000000000000000000000000000000000000000006064820152608401610912565b5f81815260056020526040812060010154908190036112a75750670de0b6b3a76400009392505050565b6112b18482612bee565b6112c385670de0b6b3a7640000612b9f565b6112cd9190612bb6565b949350505050565b5f811161133e576040517f08c379a000000000000000000000000000000000000000000000000000000000815260206004820152601d60248201527f416d6f756e74206d7573742062652067726561746572207468616e20300000006044820152606401610912565b61136a7f000000000000000000000000000000000000000000000000000000000000000033308461273d565b60405181907f084165e47a829e3a6faacb01bbc2c4773f890d5fba948b3d2ab5ffb003f2434f905f90a250565b5f8054816005816113a9600185612b59565b81526020019081526020015f2060050154436113c59190612b59565b5f83815260056020526040902060030154909150808211156113e5578091505b806113f1836064612b9f565b610e999190612bb6565b60015473ffffffffffffffffffffffffffffffffffffffff16331461147c576040517f08c379a000000000000000000000000000000000000000000000000000000000815260206004820152601460248201527f556e617574686f72697a6564206163636f756e740000000000000000000000006044820152606401610912565b73ffffffffffffffffffffffffffffffffffffffff81166114f9576040517f08c379a000000000000000000000000000000000000000000000000000000000815260206004820152600c60248201527f5a65726f206164647265737300000000000000000000000000000000000000006044820152606401610912565b600180547fffffffffffffffffffffffff00000000000000000000000000000000000000001673ffffffffffffffffffffffffffffffffffffffff83169081179091556040517f4ffd725fc4a22075e9ec71c59edf9c38cdeb588a91b24fc5b61388c5be41282b905f90a250565b5f805480825260036020908152604080842073ffffffffffffffffffffffffffffffffffffffff861685529091528220548083036115a857505f9392505050565b5f828152600560205260409020600101546112c382670de0b6b3a7640000612b9f565b5f8054816115da600183612b59565b5f818152600560205260409020600101549091501561160e575f8181526005602052604090205461160b9084612bee565b92505b5f828152600560205260409020600101541561163f575f8281526005602052604090205461163c9084612bee565b92505b505090565b60015473ffffffffffffffffffffffffffffffffffffffff1633146116c5576040517f08c379a000000000000000000000000000000000000000000000000000000000815260206004820152601460248201527f556e617574686f72697a6564206163636f756e740000000000000000000000006044820152606401610912565b5f80546116d3906001612bee565b5f8181526005602090815260409182902087815560038101879055600401859055600180547fffffffffffffffffffffff00ffffffffffffffffffffffffffffffffffffffff1674010000000000000000000000000000000000000000179055815187815290810186905290810184905290915081907f12a7025c39c132ef283c80c5db2fc1a564c96bf8fc3ca7af8e3cd63842c3a3499060600160405180910390a250505050565b6040805160018082528183019092526060916020808301908036833750505073ffffffffffffffffffffffffffffffffffffffff83165f908152600660205260408120548251929350918391906117d5576117d5612b72565b602002602001018181525050919050565b61184e604051806101c001604052805f81526020015f81526020015f81526020015f81526020015f81526020015f81526020015f81526020015f81526020015f81526020015f81526020015f81526020015f81526020015f151581526020015f151581525090565b5f805480825260056020818152604084206003810154865290850183905260048101546060860152805460a086015260018082015460c0870152600282015460e08701529293909290919082906118a59086612b59565b81526020019081526020015f206005015490508160030154816118c89190612bee565b604085018190524310156118ec574384604001516118e69190612b59565b60808501525b6040517f70a082310000000000000000000000000000000000000000000000000000000081523060048201527f000000000000000000000000000000000000000000000000000000000000000073ffffffffffffffffffffffffffffffffffffffff16906370a0823190602401602060405180830381865afa158015611974573d5f5f3e3d5ffd5b505050506040513d601f19601f820116820180604052508101906119989190612c01565b6101008501525f83815260036020908152604080832073ffffffffffffffffffffffffffffffffffffffff89168085529252918290205461012087015290517fb2cb3a9b0000000000000000000000000000000000000000000000000000000081526004810191909152309063b2cb3a9b90602401602060405180830381865afa158015611a28573d5f5f3e3d5ffd5b505050506040513d601f19601f82011682018060405250810190611a4c9190612c01565b6101408501525f611a5e600185612b59565b5f81815260046020908152604080832073ffffffffffffffffffffffffffffffffffffffff8b16845282528083205415156101808a0152838352600591829052909120015490915015611b3e576040517f402914f500000000000000000000000000000000000000000000000000000000815273ffffffffffffffffffffffffffffffffffffffff87166004820152309063402914f590602401602060405180830381865afa158015611b13573d5f5f3e3d5ffd5b505050506040513d601f19601f82011682018060405250810190611b379190612c01565b6101608601525b610120850151158015611b5a57508460a0015185610100015110155b8015611b695750846040015143105b15156101a08601525092949350505050565b600254600114611be7576040517f08c379a000000000000000000000000000000000000000000000000000000000815260206004820152600f60248201527f5265656e7472616e6379477561726400000000000000000000000000000000006044820152606401610912565b600280555f80548082526005602052604090912060040154341015611c8e576040517f08c379a000000000000000000000000000000000000000000000000000000000815260206004820152603160248201527f446f6e6174696f6e20616d6f756e74206973206c657373207468616e2074686560448201527f206d696e696d756d20646f6e6174696f6e0000000000000000000000000000006064820152608401610912565b5f3073ffffffffffffffffffffffffffffffffffffffff1663bb8520426040518163ffffffff1660e01b8152600401602060405180830381865afa158015611cd8573d5f5f3e3d5ffd5b505050506040513d601f19601f82011682018060405250810190611cfc9190612c01565b5f83815260056020526040902054909150611d18908290612bee565b6040517f70a082310000000000000000000000000000000000000000000000000000000081523060048201527f000000000000000000000000000000000000000000000000000000000000000073ffffffffffffffffffffffffffffffffffffffff16906370a0823190602401602060405180830381865afa158015611da0573d5f5f3e3d5ffd5b505050506040513d601f19601f82011682018060405250810190611dc49190612c01565b1015611e52576040517f08c379a000000000000000000000000000000000000000000000000000000000815260206004820152602360248201527f4e6f7420656e6f756768207265776172647320746f20706c617920746865206760448201527f616d6500000000000000000000000000000000000000000000000000000000006064820152608401610912565b5f82815260036020908152604080832033845290915290205415611ed2576040517f08c379a000000000000000000000000000000000000000000000000000000000815260206004820152601a60248201527f416c726561647920646f6e61746564207468697320726f756e640000000000006044820152606401610912565b5f611edb610e3d565b11611f42576040517f08c379a000000000000000000000000000000000000000000000000000000000815260206004820152600f60248201527f526f756e642068617320656e64656400000000000000000000000000000000006044820152606401610912565b5f8281526005602052604081206001018054349290611f62908490612bee565b90915550505f8281526003602090815260408083203384528252808320349081905560069092528220805491929091611f9c908490612bee565b9091555050604051349033907f264f630d9efa0d07053a31163641d9fcc0adafc9d9e76f1c37c2ce3a558d2c52905f90a350506001600255565b5f6040517fa9059cbb000000000000000000000000000000000000000000000000000000005f5273ffffffffffffffffffffffffffffffffffffffff84166004528260245260205f60445f5f895af13d15601f3d1160015f511416171691505f6060528060405250806120a2576040517fabae3d6d00000000000000000000000000000000000000000000000000000000815273ffffffffffffffffffffffffffffffffffffffff80861660048301523060248301528416604482015260648101839052608401610912565b50505050565b5f818152600560205260408120600281015490546120c69190612b59565b5f838152600560205260409020600101549091507f0000000000000000000000000000000000000000000000000000000000000000821080612106575080155b1561211057505050565b5f7f000000000000000000000000000000000000000000000000000000000000000067ffffffffffffffff81111561214a5761214a61282c565b604051908082528060200260200182016040528015612173578160200160208202803683370190505b50905082817f0000000000000000000000000000000000000000000000000000000000000000815181106121a9576121a9612b72565b60209081029190910101526040517f095ea7b300000000000000000000000000000000000000000000000000000000815273ffffffffffffffffffffffffffffffffffffffff7f0000000000000000000000000000000000000000000000000000000000000000811660048301525f60248301527f0000000000000000000000000000000000000000000000000000000000000000169063095ea7b3906044016020604051808303815f875af1158015612265573d5f5f3e3d5ffd5b505050506040513d601f19601f820116820180604052508101906122899190612c18565b506040517f095ea7b300000000000000000000000000000000000000000000000000000000815273ffffffffffffffffffffffffffffffffffffffff7f000000000000000000000000000000000000000000000000000000000000000081166004830152602482018590527f0000000000000000000000000000000000000000000000000000000000000000169063095ea7b3906044016020604051808303815f875af115801561233c573d5f5f3e3d5ffd5b505050506040513d601f19601f820116820180604052508101906123609190612c18565b5073ffffffffffffffffffffffffffffffffffffffff7f0000000000000000000000000000000000000000000000000000000000000000166387517c457f00000000000000000000000000000000000000000000000000000000000000007f0000000000000000000000000000000000000000000000000000000000000000866123ed4262015180612bee565b6040517fffffffff0000000000000000000000000000000000000000000000000000000060e087901b16815273ffffffffffffffffffffffffffffffffffffffff948516600482015292841660248401529216604482015265ffffffffffff90911660648201526084015f604051808303815f87803b15801561246e575f5ffd5b505af1158015612480573d5f5f3e3d5ffd5b50506040517fbf6ee3fd00000000000000000000000000000000000000000000000000000000815273ffffffffffffffffffffffffffffffffffffffff7f000000000000000000000000000000000000000000000000000000000000000016925063bf6ee3fd915061251b907f0000000000000000000000000000000000000000000000000000000000000000908590600190600401612c37565b5f604051808303815f87803b158015612532575f5ffd5b505af1158015612544573d5f5f3e3d5ffd5b50506040518592507ff2092fa360386c48bdcf4bbd9eb0512e6288744a8664acf38aead698368bb19291505f90a250505050565b477f00000000000000000000000000000000000000000000000000000000000000008110156125a45750565b5f7f000000000000000000000000000000000000000000000000000000000000000067ffffffffffffffff8111156125de576125de61282c565b604051908082528060200260200182016040528015612607578160200160208202803683370190505b50905081817f00000000000000000000000000000000000000000000000000000000000000008151811061263d5761263d612b72565b60209081029190910101526040517fbf6ee3fd00000000000000000000000000000000000000000000000000000000815273ffffffffffffffffffffffffffffffffffffffff7f0000000000000000000000000000000000000000000000000000000000000000169063bf6ee3fd9084906126e1907f0000000000000000000000000000000000000000000000000000000000000000908690600190600401612c37565b5f604051808303818588803b1580156126f8575f5ffd5b505af115801561270a573d5f5f3e3d5ffd5b50506040518593507f6a105f72bec70df8ca4968fb6316bfbbcc1a488a733ebae3f6088e81652226f392505f9150a25050565b5f6040517f23b872dd000000000000000000000000000000000000000000000000000000005f5273ffffffffffffffffffffffffffffffffffffffff851660045273ffffffffffffffffffffffffffffffffffffffff84166024528260445260205f60645f5f8a5af13d15601f3d1160015f511416171691505f606052806040525080612825576040517fabae3d6d00000000000000000000000000000000000000000000000000000000815273ffffffffffffffffffffffffffffffffffffffff808716600483015280861660248301528416604482015260648101839052608401610912565b5050505050565b7f4e487b71000000000000000000000000000000000000000000000000000000005f52604160045260245ffd5b5f82601f830112612868575f5ffd5b813567ffffffffffffffff8111156128825761288261282c565b8060051b6040517fffffffffffffffffffffffffffffffffffffffffffffffffffffffffffffffe0603f830116810181811067ffffffffffffffff821117156128cd576128cd61282c565b6040529182526020818501810192908101868411156128ea575f5ffd5b6020860192505b838310156129095782358152602092830192016128f1565b5095945050505050565b5f5f5f60608486031215612925575f5ffd5b833567ffffffffffffffff81111561293b575f5ffd5b61294786828701612859565b935050602084013567ffffffffffffffff811115612963575f5ffd5b61296f86828701612859565b93969395505050506040919091013590565b803573ffffffffffffffffffffffffffffffffffffffff811681146129a4575f5ffd5b919050565b5f602082840312156129b9575f5ffd5b6107c882612981565b5f5f604083850312156129d3575f5ffd5b823591506129e360208401612981565b90509250929050565b5f602082840312156129fc575f5ffd5b5035919050565b5f5f5f60608486031215612a15575f5ffd5b505081359360208301359350604090920135919050565b5f8151808452602084019350602083015f5b82811015612a5c578151865260209586019590910190600101612a3e565b5093949350505050565b602081525f6107c86020830184612a2c565b5f6101c082019050825182526020830151602083015260408301516040830152606083015160608301526080830151608083015260a083015160a083015260c083015160c083015260e083015160e0830152610100830151610100830152610120830151610120830152610140830151610140830152610160830151610160830152610180830151612b0f61018084018215159052565b506101a0830151612b256101a084018215159052565b5092915050565b7f4e487b71000000000000000000000000000000000000000000000000000000005f52601160045260245ffd5b81810381811115612b6c57612b6c612b2c565b92915050565b7f4e487b71000000000000000000000000000000000000000000000000000000005f52603260045260245ffd5b8082028115828204841417612b6c57612b6c612b2c565b5f82612be9577f4e487b71000000000000000000000000000000000000000000000000000000005f52601260045260245ffd5b500490565b80820180821115612b6c57612b6c612b2c565b5f60208284031215612c11575f5ffd5b5051919050565b5f60208284031215612c28575f5ffd5b815180151581146107c8575f5ffd5b73ffffffffffffffffffffffffffffffffffffffff84168152608060208201525f612c656080830185612a2c565b9215156040830152508082036060909101525f81526020019291505056fea264697066735822122095d1521c23ac2cc5c0ddc16570b634e53b45cd7ba9e663b764a9c4a9f3629b7f64736f6c634300081e0033",
  "methodIdentifiers": {
    "MINIMUM_BALANCE_DONATION_AMOUNT()": "37b19790",
    "assetsInPool()": "415ad1d7",
    "balancerRouter()": "49ec8b38",
    "balancerVaultAdmin()": "bc5df1aa",
    "changeOwner(address)": "a6f9dae1",
    "changeParams(uint256,uint256,uint256)": "c9a97ec8",
    "claim()": "4e71d92d",
    "claimable(address)": "402914f5",
    "currentRound()": "8a19c8bc",
    "donate()": "ed88c68e",
    "endRound()": "749aa2d9",
    "epochDonationActivities(address)": "f0cf14f4",
    "estimateTicketPercentage(uint256)": "8515697a",
    "getAllocatedIncentives()": "bb852042",
    "getBlocksSinceRoundEnd()": "118f4348",
    "getCurrentShare(address)": "b2cb3a9b",
    "getGameState(address)": "d9d60b52",
    "getMultisigNonces(address)": "d564c4bf",
    "getRemainingRoundLength()": "678c2c3e",
    "getRoundProgress()": "9c89ae38",
    "incentiveTokenAddress()": "20263e87",
    "incentiveTokenIndex()": "318bf475",
    "isRatioPass(uint256[],uint256[],uint256)": "184023a5",
    "owner()": "8da5cb5b",
    "paramsUpdateRequested()": "417da65a",
    "permit2()": "12261ee7",
    "poolId()": "3e0dc34e",
    "roundPoints(uint256)": "b99ab0ad",
    "roundToClaimed(uint256,address)": "8f1f6bc7",
    "roundToDonations(uint256,address)": "4d6180ae",
    "topUpIncentiveBalance(uint256)": "85de7ff6",
    "wethIndex()": "8c3e5a06",
    "withdrawIncentiveTokenBalance()": "60c13286"
  },
  "id": 0,
  "address": "0x2216ebB7f5f983b1D15713F90556edd56EB88DeE"
}