{
  "address": "0x35CAf83118d58504C179b50D538a095ac08Ebc8f",
  "abi": [
    {
      "inputs": [
        {
          "internalType": "address",
          "name": "_owner",
          "type": "address"
        },
        {
          "internalType": "uint256",
          "name": "_minimumDonation",
          "type": "uint256"
        },
        {
          "internalType": "address",
          "name": "_balancerRouter",
          "type": "address"
        },
        {
          "internalType": "address",
          "name": "_poolId",
          "type": "address"
        },
        {
          "internalType": "uint256",
          "name": "_assetsInPool",
          "type": "uint256"
        },
        {
          "internalType": "uint256",
          "name": "_wethIndex",
          "type": "uint256"
        },
        {
          "internalType": "uint256",
          "name": "_olasIndex",
          "type": "uint256"
        },
        {
          "internalType": "address",
          "name": "_incentiveTokenAddress",
          "type": "address"
        }
      ],
      "stateMutability": "nonpayable",
      "type": "constructor"
    },
    {
      "inputs": [
        {
          "internalType": "address",
          "name": "target",
          "type": "address"
        }
      ],
      "name": "AddressEmptyCode",
      "type": "error"
    },
    {
      "inputs": [
        {
          "internalType": "address",
          "name": "account",
          "type": "address"
        }
      ],
      "name": "AddressInsufficientBalance",
      "type": "error"
    },
    {
      "inputs": [],
      "name": "FailedInnerCall",
      "type": "error"
    },
    {
      "inputs": [
        {
          "internalType": "address",
          "name": "owner",
          "type": "address"
        }
      ],
      "name": "OwnableInvalidOwner",
      "type": "error"
    },
    {
      "inputs": [
        {
          "internalType": "address",
          "name": "account",
          "type": "address"
        }
      ],
      "name": "OwnableUnauthorizedAccount",
      "type": "error"
    },
    {
      "inputs": [],
      "name": "ReentrancyGuardReentrantCall",
      "type": "error"
    },
    {
      "inputs": [
        {
          "internalType": "address",
          "name": "token",
          "type": "address"
        }
      ],
      "name": "SafeERC20FailedOperation",
      "type": "error"
    },
    {
      "anonymous": false,
      "inputs": [
        {
          "indexed": true,
          "internalType": "uint256",
          "name": "epochRewards",
          "type": "uint256"
        }
      ],
      "name": "AuctionEnded",
      "type": "event"
    },
    {
      "anonymous": false,
      "inputs": [
        {
          "indexed": true,
          "internalType": "address",
          "name": "donatorAddress",
          "type": "address"
        },
        {
          "indexed": true,
          "internalType": "uint256",
          "name": "amount",
          "type": "uint256"
        }
      ],
      "name": "DonationReceived",
      "type": "event"
    },
    {
      "anonymous": false,
      "inputs": [
        {
          "indexed": true,
          "internalType": "uint256",
          "name": "amount",
          "type": "uint256"
        }
      ],
      "name": "EthDonatedToBalancer",
      "type": "event"
    },
    {
      "anonymous": false,
      "inputs": [
        {
          "indexed": true,
          "internalType": "address",
          "name": "previousOwner",
          "type": "address"
        },
        {
          "indexed": true,
          "internalType": "address",
          "name": "newOwner",
          "type": "address"
        }
      ],
      "name": "OwnershipTransferred",
      "type": "event"
    },
    {
      "anonymous": false,
      "inputs": [
        {
          "indexed": true,
          "internalType": "address",
          "name": "donatorAddress",
          "type": "address"
        },
        {
          "indexed": true,
          "internalType": "uint256",
          "name": "amount",
          "type": "uint256"
        }
      ],
      "name": "RewardsClaimed",
      "type": "event"
    },
    {
      "anonymous": false,
      "inputs": [
        {
          "indexed": true,
          "internalType": "uint256",
          "name": "amount",
          "type": "uint256"
        }
      ],
      "name": "UnclaimedRewardsDonated",
      "type": "event"
    },
    {
      "inputs": [],
      "name": "assetsInPool",
      "outputs": [
        {
          "internalType": "uint256",
          "name": "",
          "type": "uint256"
        }
      ],
      "stateMutability": "view",
      "type": "function"
    },
    {
      "inputs": [],
      "name": "balancerRouter",
      "outputs": [
        {
          "internalType": "address",
          "name": "",
          "type": "address"
        }
      ],
      "stateMutability": "view",
      "type": "function"
    },
    {
      "inputs": [
        {
          "internalType": "uint256",
          "name": "claimAmount",
          "type": "uint256"
        }
      ],
      "name": "canPayTicket",
      "outputs": [
        {
          "internalType": "bool",
          "name": "",
          "type": "bool"
        }
      ],
      "stateMutability": "view",
      "type": "function"
    },
    {
      "inputs": [],
      "name": "canPlayGame",
      "outputs": [
        {
          "internalType": "bool",
          "name": "",
          "type": "bool"
        }
      ],
      "stateMutability": "view",
      "type": "function"
    },
    {
      "inputs": [],
      "name": "claim",
      "outputs": [],
      "stateMutability": "nonpayable",
      "type": "function"
    },
    {
      "inputs": [
        {
          "internalType": "address",
          "name": "_address",
          "type": "address"
        }
      ],
      "name": "claimable",
      "outputs": [
        {
          "internalType": "uint256",
          "name": "",
          "type": "uint256"
        }
      ],
      "stateMutability": "view",
      "type": "function"
    },
    {
      "inputs": [],
      "name": "currentEpoch",
      "outputs": [
        {
          "internalType": "uint256",
          "name": "",
          "type": "uint256"
        }
      ],
      "stateMutability": "view",
      "type": "function"
    },
    {
      "inputs": [],
      "name": "donate",
      "outputs": [],
      "stateMutability": "payable",
      "type": "function"
    },
    {
      "inputs": [],
      "name": "endEpoch",
      "outputs": [],
      "stateMutability": "nonpayable",
      "type": "function"
    },
    {
      "inputs": [
        {
          "internalType": "uint256",
          "name": "",
          "type": "uint256"
        }
      ],
      "name": "epochDonated",
      "outputs": [
        {
          "internalType": "bool",
          "name": "",
          "type": "bool"
        }
      ],
      "stateMutability": "view",
      "type": "function"
    },
    {
      "inputs": [],
      "name": "epochLength",
      "outputs": [
        {
          "internalType": "uint256",
          "name": "",
          "type": "uint256"
        }
      ],
      "stateMutability": "view",
      "type": "function"
    },
    {
      "inputs": [],
      "name": "epochRewards",
      "outputs": [
        {
          "internalType": "uint256",
          "name": "",
          "type": "uint256"
        }
      ],
      "stateMutability": "view",
      "type": "function"
    },
    {
      "inputs": [
        {
          "internalType": "uint256",
          "name": "",
          "type": "uint256"
        },
        {
          "internalType": "address",
          "name": "",
          "type": "address"
        }
      ],
      "name": "epochToClaimed",
      "outputs": [
        {
          "internalType": "uint256",
          "name": "",
          "type": "uint256"
        }
      ],
      "stateMutability": "view",
      "type": "function"
    },
    {
      "inputs": [
        {
          "internalType": "uint256",
          "name": "",
          "type": "uint256"
        },
        {
          "internalType": "address",
          "name": "",
          "type": "address"
        }
      ],
      "name": "epochToDonations",
      "outputs": [
        {
          "internalType": "uint256",
          "name": "",
          "type": "uint256"
        }
      ],
      "stateMutability": "view",
      "type": "function"
    },
    {
      "inputs": [
        {
          "internalType": "uint256",
          "name": "",
          "type": "uint256"
        }
      ],
      "name": "epochToEndBlock",
      "outputs": [
        {
          "internalType": "uint256",
          "name": "",
          "type": "uint256"
        }
      ],
      "stateMutability": "view",
      "type": "function"
    },
    {
      "inputs": [
        {
          "internalType": "uint256",
          "name": "",
          "type": "uint256"
        }
      ],
      "name": "epochToTotalDonated",
      "outputs": [
        {
          "internalType": "uint256",
          "name": "",
          "type": "uint256"
        }
      ],
      "stateMutability": "view",
      "type": "function"
    },
    {
      "inputs": [
        {
          "internalType": "uint256",
          "name": "donation",
          "type": "uint256"
        }
      ],
      "name": "estimateTicketPercentage",
      "outputs": [
        {
          "internalType": "uint256",
          "name": "",
          "type": "uint256"
        }
      ],
      "stateMutability": "view",
      "type": "function"
    },
    {
      "inputs": [],
      "name": "forceAdvanceEpoch",
      "outputs": [],
      "stateMutability": "nonpayable",
      "type": "function"
    },
    {
      "inputs": [],
      "name": "getBlocksRemaining",
      "outputs": [
        {
          "internalType": "uint256",
          "name": "",
          "type": "uint256"
        }
      ],
      "stateMutability": "view",
      "type": "function"
    },
    {
      "inputs": [],
      "name": "getCurrentEpoch",
      "outputs": [
        {
          "internalType": "uint256",
          "name": "",
          "type": "uint256"
        }
      ],
      "stateMutability": "view",
      "type": "function"
    },
    {
      "inputs": [
        {
          "internalType": "address",
          "name": "_address",
          "type": "address"
        }
      ],
      "name": "getCurrentShare",
      "outputs": [
        {
          "internalType": "uint256",
          "name": "",
          "type": "uint256"
        }
      ],
      "stateMutability": "view",
      "type": "function"
    },
    {
      "inputs": [],
      "name": "getEpochLength",
      "outputs": [
        {
          "internalType": "uint256",
          "name": "",
          "type": "uint256"
        }
      ],
      "stateMutability": "view",
      "type": "function"
    },
    {
      "inputs": [],
      "name": "getEpochRewards",
      "outputs": [
        {
          "internalType": "uint256",
          "name": "",
          "type": "uint256"
        }
      ],
      "stateMutability": "view",
      "type": "function"
    },
    {
      "inputs": [
        {
          "internalType": "address",
          "name": "user",
          "type": "address"
        }
      ],
      "name": "getGameState",
      "outputs": [
        {
          "internalType": "uint256",
          "name": "_currentEpoch",
          "type": "uint256"
        },
        {
          "internalType": "uint256",
          "name": "_epochLength",
          "type": "uint256"
        },
        {
          "internalType": "uint256",
          "name": "_epochEndBlock",
          "type": "uint256"
        },
        {
          "internalType": "uint256",
          "name": "_minimumDonation",
          "type": "uint256"
        },
        {
          "internalType": "uint256",
          "name": "_blocksRemaining",
          "type": "uint256"
        },
        {
          "internalType": "uint256",
          "name": "_epochRewards",
          "type": "uint256"
        },
        {
          "internalType": "uint256",
          "name": "_totalDonated",
          "type": "uint256"
        },
        {
          "internalType": "uint256",
          "name": "_totalClaimed",
          "type": "uint256"
        },
        {
          "internalType": "uint256",
          "name": "_incentiveBalance",
          "type": "uint256"
        },
        {
          "internalType": "uint256",
          "name": "_userCurrentDonation",
          "type": "uint256"
        },
        {
          "internalType": "uint256",
          "name": "_userCurrentShare",
          "type": "uint256"
        },
        {
          "internalType": "uint256",
          "name": "_userClaimable",
          "type": "uint256"
        },
        {
          "internalType": "bool",
          "name": "_hasClaimed",
          "type": "bool"
        },
        {
          "internalType": "bool",
          "name": "_canPlayGame",
          "type": "bool"
        }
      ],
      "stateMutability": "view",
      "type": "function"
    },
    {
      "inputs": [],
      "name": "getTotalClaimed",
      "outputs": [
        {
          "internalType": "uint256",
          "name": "",
          "type": "uint256"
        }
      ],
      "stateMutability": "view",
      "type": "function"
    },
    {
      "inputs": [],
      "name": "getTotalDonated",
      "outputs": [
        {
          "internalType": "uint256",
          "name": "",
          "type": "uint256"
        }
      ],
      "stateMutability": "view",
      "type": "function"
    },
    {
      "inputs": [],
      "name": "getTotalUnclaimed",
      "outputs": [
        {
          "internalType": "uint256",
          "name": "",
          "type": "uint256"
        }
      ],
      "stateMutability": "view",
      "type": "function"
    },
    {
      "inputs": [],
      "name": "incentiveBalance",
      "outputs": [
        {
          "internalType": "uint256",
          "name": "",
          "type": "uint256"
        }
      ],
      "stateMutability": "view",
      "type": "function"
    },
    {
      "inputs": [],
      "name": "incentiveTokenAddress",
      "outputs": [
        {
          "internalType": "address",
          "name": "",
          "type": "address"
        }
      ],
      "stateMutability": "view",
      "type": "function"
    },
    {
      "inputs": [],
      "name": "maxDonatorsPerEpoch",
      "outputs": [
        {
          "internalType": "uint256",
          "name": "",
          "type": "uint256"
        }
      ],
      "stateMutability": "view",
      "type": "function"
    },
    {
      "inputs": [],
      "name": "minimumDonation",
      "outputs": [
        {
          "internalType": "uint256",
          "name": "",
          "type": "uint256"
        }
      ],
      "stateMutability": "view",
      "type": "function"
    },
    {
      "inputs": [],
      "name": "olasIndex",
      "outputs": [
        {
          "internalType": "uint256",
          "name": "",
          "type": "uint256"
        }
      ],
      "stateMutability": "view",
      "type": "function"
    },
    {
      "inputs": [],
      "name": "owner",
      "outputs": [
        {
          "internalType": "address",
          "name": "",
          "type": "address"
        }
      ],
      "stateMutability": "view",
      "type": "function"
    },
    {
      "inputs": [],
      "name": "permit2",
      "outputs": [
        {
          "internalType": "contract IPermit2",
          "name": "",
          "type": "address"
        }
      ],
      "stateMutability": "view",
      "type": "function"
    },
    {
      "inputs": [],
      "name": "poolId",
      "outputs": [
        {
          "internalType": "address",
          "name": "",
          "type": "address"
        }
      ],
      "stateMutability": "view",
      "type": "function"
    },
    {
      "inputs": [],
      "name": "renounceOwnership",
      "outputs": [],
      "stateMutability": "nonpayable",
      "type": "function"
    },
    {
      "inputs": [
        {
          "internalType": "uint256",
          "name": "amount",
          "type": "uint256"
        }
      ],
      "name": "topUpIncentiveBalance",
      "outputs": [],
      "stateMutability": "nonpayable",
      "type": "function"
    },
    {
      "inputs": [],
      "name": "totalClaimed",
      "outputs": [
        {
          "internalType": "uint256",
          "name": "",
          "type": "uint256"
        }
      ],
      "stateMutability": "view",
      "type": "function"
    },
    {
      "inputs": [],
      "name": "totalDonated",
      "outputs": [
        {
          "internalType": "uint256",
          "name": "",
          "type": "uint256"
        }
      ],
      "stateMutability": "view",
      "type": "function"
    },
    {
      "inputs": [
        {
          "internalType": "address",
          "name": "newOwner",
          "type": "address"
        }
      ],
      "name": "transferOwnership",
      "outputs": [],
      "stateMutability": "nonpayable",
      "type": "function"
    },
    {
      "inputs": [],
      "name": "wethIndex",
      "outputs": [
        {
          "internalType": "uint256",
          "name": "",
          "type": "uint256"
        }
      ],
      "stateMutability": "view",
      "type": "function"
    },
    {
      "stateMutability": "payable",
      "type": "receive"
    }
  ],
  "transactionHash": "0xd032e641a68f2a071da973b0c707169d634540ff30348ad61151d8d308504c79",
  "args": [
    "0x5D407A012071CB234CA1A965be9E47a3fCA5d704",
    10000000000000,
    "0x3f170631ed9821ca51a59d996ab095162438dc10",
    "0x7b4c560f33a71a9f7a500af3c4c65b46fbbafdb7",
    8,
    1,
    3,
    "0x54330d28ca3357f294334bdc454a032e7f353416"
  ],
  "numDeployments": 3,
  "solcInputHash": "842d1ee649da66bb8083e389f94a16de",
  "bytecode": "0x6101c0604081815234620003245781906200248f803803809162000024828662000329565b8439610100938491810103126200032457620000408262000363565b60209182840151906200005581860162000363565b90620000646060870162000363565b9460808701519460a0880151906200008460e060c08b01519a0162000363565b60016000908155909590926001600160a01b0392831680156200030c57600180546001600160a01b03198116831790915584167f8be0079c531659141344cd1fd0a4f28419497f9722a3daafe3b4186f6b6457e08680a361018098670de0b6b3a76400008a526101a09a605a8c5285600455610160998a528360a05260c05260e0528b52610120998a52610140958652605a4301804311620002f85783805260088552858420558451631bbf2e2360e01b81529084908290600490829086165afa908115620002ee578391620002ad575b50166080526001600455865143019182431162000299579060088492600183525220555194612116968762000379883960805187818161130801526118f4015260a05187818161117d015281816119c50152611c68015260c05187818161123f01528181611a290152611cb4015260e0518781816111c4015281816118a00152611c160152518681816109e10152611c4001525185818161084b01526118cb01525184818161057b01528181610a3801528181610f0c015281816112830152818161158f015261185a0152518381816102dd01528181610616015281816109780152611ecd01525182818161030f0152818161054c0152818161091f01528181610e83015281816113ba015281816114d90152818161181201528181611e2b01526120b70152518181816105ef01528181610df40152818161149e01526116a90152f35b634e487b7160e01b82526011600452602482fd5b90508381813d8311620002e6575b620002c7818362000329565b81010312620002e257620002db9062000363565b3862000155565b8280fd5b503d620002bb565b85513d85823e3d90fd5b634e487b7160e01b84526011600452602484fd5b8651631e4fbdf760e01b815260048101869052602490fd5b600080fd5b601f909101601f19168101906001600160401b038211908210176200034d57604052565b634e487b7160e01b600052604160045260246000fd5b51906001600160a01b0382168203620003245756fe60806040818152600480361015610021575b505050361561001f57600080fd5b005b600092833560e01c908162b3704414611439575080630b9663db1461133757806312261ee7146112f357806315a9c750146112b257806320263e871461126e5780633e0dc34e1461122a578063402914f51461120457806340add905146111e7578063415ad1d7146111ac57806349ec8b38146111685780634e71d92d14610da6578063533b3bfc14610d8957806357d775f8146107e95780636e0d8ccd14610d5d578063715018a614610d00578063736a83a1146107ca5780637667180814610816578063773f7a3a1461099b5780637941a06214610ce35780638515697a14610cc35780638598836214610c9c57806385de7ff614610a045780638c3e5a06146109c95780638da5cb5b146109a05780639453e78c1461099b57806396d8f4f3146109605780639971db2f14610944578063a5be619a146108fd578063b2cb3a9b146108d0578063b519fc1f1461086e578063b88140ae14610833578063b97dd9e214610816578063b99c13e0146107ee578063cfe8a73b146107e9578063d54ad2a1146107ca578063d56e3068146107ab578063d9d60b52146104f6578063e7bd55dc146104cf578063ed88c68e146102bf578063f2fde38b146102305763fdf2792403610011573461022c578160031936011261022c576020928291610209611455565b90358252600585528282206001600160a01b039091168252845220549051908152f35b8280fd5b503461022c57602036600319011261022c5761024a611470565b906102536114fc565b6001600160a01b039182169283156102a9575050600154826bffffffffffffffffffffffff60a01b821617600155167f8be0079c531659141344cd1fd0a4f28419497f9722a3daafe3b4186f6b6457e08380a380f35b51631e4fbdf760e01b8152908101849052602490fd5b508260031936011261022c576102d3611642565b8054801561048c577f0000000000000000000000000000000000000000000000000000000000000000341061042f5761033561030d611574565b7f00000000000000000000000000000000000000000000000000000000000000001115611e6e565b808452602091600583528385203386528352838520546103ec578185526007835260588486205410156103b2575061036f34600254611665565b6002558352600581528183209033845252349082205534337f264f630d9efa0d07053a31163641d9fcc0adafc9d9e76f1c37c2ce3a558d2c528380a36001815580f35b835162461bcd60e51b8152908101839052601460248201527313585e08191bdb985d1bdc9cc81c995858da195960621b6044820152606490fd5b835162461bcd60e51b8152908101839052601a60248201527f416c726561647920646f6e6174656420746869732065706f63680000000000006044820152606490fd5b506020608492519162461bcd60e51b8352820152603160248201527f446f6e6174696f6e20616d6f756e74206973206c657373207468616e207468656044820152701036b4b734b6bab6903237b730ba34b7b760791b6064820152fd5b506020606492519162461bcd60e51b8352820152601860248201527f47616d6520686173206e6f7420737461727465642079657400000000000000006044820152fd5b503461022c57602036600319011261022c5760209282913581526007845220549051908152f35b5091346107a857602091826003193601126107a457610513611470565b9184549283825260088552828220548043101560001461079557825b60025460035486516370a0823160e01b8152308b820152929091907f0000000000000000000000000000000000000000000000000000000000000000906001600160a01b038b866024817f000000000000000000000000000000000000000000000000000000000000000085165afa95861561078b578996610758575b508a895260058c528989209716808952968b5288882054958361071b5788975b8b61067657506101c09c5088995b836105e3611574565b10159b81519d8e9182527f00000000000000000000000000000000000000000000000000000000000000009101528c01527f000000000000000000000000000000000000000000000000000000000000000060608c015260808b015260a08a015260c089015260e088015261010087015261012086015261014085015261016084015215156101808301526101a0820152f35b99986000198c018c8111610707576101c09e5060078e828452600681528d8d852090855281528c84205415159d838552600582528d852090855281528c84205492845252848b83205491801580156106ff575b80156106f8575b156106de57505050986105da565b6106f29350906106ed91611d32565b611d45565b986105da565b508d6106d0565b5082156106c9565b50634e487b7160e01b815260118e52602490fd5b670de0b6b3a7640000808802908882041488151715610744578461073e91611d45565b976105cc565b50634e487b7160e01b895260118d52602489fd5b9095508b81813d8311610784575b6107708183611552565b81010312610780575194386105ac565b8880fd5b503d610766565b8a513d8b823e3d90fd5b61079f43826116df565b61052f565b5080fd5b80fd5b5050346107a457816003193601126107a4576020906002549051908152f35b5050346107a457816003193601126107a4576020906003549051908152f35b611486565b503461022c57602036600319011261022c57602092503561080d611574565b10159051908152f35b503461022c578260031936011261022c5760209250549051908152f35b5050346107a457816003193601126107a457602090517f00000000000000000000000000000000000000000000000000000000000000008152f35b83346107a857806003193601126107a8576108876114fc565b6108a06002546004546000526007602052604060002055565b6108a8611688565b807f45806e512b1f4f10e33e8b3cb64d1d11d998d8c554a95e0841fc1c701278bd5d8180a280f35b5050346107a45760203660031901126107a4576020906108f66108f1611470565b611fdf565b9051908152f35b5050346107a457816003193601126107a45760209061091a611574565b9051907f000000000000000000000000000000000000000000000000000000000000000011158152f35b5050346107a457816003193601126107a4576020905160588152f35b5050346107a457816003193601126107a457602090517f00000000000000000000000000000000000000000000000000000000000000008152f35b6114c1565b5050346107a457816003193601126107a45760015490516001600160a01b039091168152602090f35b5050346107a457816003193601126107a457602090517f00000000000000000000000000000000000000000000000000000000000000008152f35b508290346107a45760208060031936011261022c578135938415610c5b5780516370a0823160e01b815233848201526024957f00000000000000000000000000000000000000000000000000000000000000006001600160a01b0316939182818981885afa8015610c205782908890610c2a575b610a8492501015611d65565b8251636eb1769f60e11b8152338682015230888201528281604481885afa908115610c20579082918891610beb575b5010610bb257825190828201906323b872dd60e01b8252338984015230604484015260648301526064825260a082019167ffffffffffffffff9281811084821117610ba057855251969796889182919082885af13d15610b93573d918211610b815790610b3f91845191610b3085601f19601f8401160184611552565b82523d898584013e5b85611f7c565b8051918215159283610b68575b505050610b57578480f35b51635274afe760e01b815291820152fd5b610b789350820181019101611760565b15868080610b4c565b634e487b7160e01b8852604186528688fd5b610b3f9150606090610b39565b634e487b7160e01b8952604188528989fd5b825162461bcd60e51b8152808601839052601481890152734e6f7420656e6f75676820616c6c6f77616e636560601b6044820152606490fd5b809250848092503d8311610c19575b610c048183611552565b81010312610c155781905189610ab3565b8680fd5b503d610bfa565b84513d89823e3d90fd5b50508281813d8311610c54575b610c418183611552565b81010312610c155781610a849151610a78565b503d610c37565b5162461bcd60e51b815291820152601d60248201527f416d6f756e74206d7573742062652067726561746572207468616e2030000000604482015260649150fd5b503461022c57602036600319011261022c5760209282913581526008845220549051908152f35b5091346107a85760203660031901126107a857506108f660209235611ecb565b5050346107a457816003193601126107a4576020906108f6612045565b83346107a857806003193601126107a857610d196114fc565b600180546001600160a01b0319811690915581906001600160a01b03167f8be0079c531659141344cd1fd0a4f28419497f9722a3daafe3b4186f6b6457e08280a380f35b503461022c57602036600319011261022c578160209360ff923581526009855220541690519015158152f35b5050346107a457816003193601126107a4576020906108f6612075565b503461022c578260031936011261022c57610dbf611642565b805491821561112c576000198301928311611119578284526020916008835281852054156110e25783855260088352818520547f00000000000000000000000000000000000000000000000000000000000000006001600160ff1b03811681036110cf5790610e319160011b90611665565b431161109857838552600683528185203386528352818520546110655783855260058352818520338652835281852054801561102f578486526007845282862054908115610fec57906106ed610ea8927f000000000000000000000000000000000000000000000000000000000000000090611d32565b938415610fb75784610f0793928592610eca83610ec3611574565b1015611d65565b88526006835283882033808a52908452848920839055845163a9059cbb60e01b815291820190815260208101929092529384918291604090910190565b0381887f00000000000000000000000000000000000000000000000000000000000000006001600160a01b03165af1908115610fae5750610f80575b5050610f5181600354611665565b600355337ffc30cddea38e2bf4d6ea7d3f9ed3b6ad7f176419f4963bd81318067a4aee73fe8380a36001815580f35b81610f9f92903d10610fa7575b610f978183611552565b810190611760565b503880610f43565b503d610f8d565b513d86823e3d90fd5b5082606492519162461bcd60e51b8352820152601060248201526f4e6f7468696e6720746f20636c61696d60801b6044820152fd5b835162461bcd60e51b8152808401869052601760248201527f4e6f20646f6e6174696f6e7320746869732065706f63680000000000000000006044820152606490fd5b5082606492519162461bcd60e51b83528201526011602482015270139bc8191bdb985d1a5bdb88199bdd5b99607a1b6044820152fd5b82606492519162461bcd60e51b8352820152600f60248201526e105b1c9958591e4818db185a5b5959608a1b6044820152fd5b82606492519162461bcd60e51b8352820152601360248201527210db185a5b481dda5b991bddc818db1bdcd959606a1b6044820152fd5b634e487b7160e01b875260118352602487fd5b82606492519162461bcd60e51b83528201526013602482015272115c1bd8da081b9bdd08195b991959081e595d606a1b6044820152fd5b634e487b7160e01b845260118252602484fd5b906020606492519162461bcd60e51b835282015260166024820152754e6f2065706f636820746f20636c61696d2066726f6d60501b6044820152fd5b5050346107a457816003193601126107a457517f00000000000000000000000000000000000000000000000000000000000000006001600160a01b03168152602090f35b5050346107a457816003193601126107a457602090517f00000000000000000000000000000000000000000000000000000000000000008152f35b5050346107a457816003193601126107a4576020906108f6611574565b5050346107a45760203660031901126107a4576020906108f6611225611470565b611db1565b5050346107a457816003193601126107a457517f00000000000000000000000000000000000000000000000000000000000000006001600160a01b03168152602090f35b5050346107a457816003193601126107a457517f00000000000000000000000000000000000000000000000000000000000000006001600160a01b03168152602090f35b503461022c578160031936011261022c5760209282916112d0611455565b90358252600685528282206001600160a01b039091168252845220549051908152f35b5050346107a457816003193601126107a457517f00000000000000000000000000000000000000000000000000000000000000006001600160a01b03168152602090f35b503461022c578260031936011261022c5780548352600860205261136082842054431015611605565b611368611642565b8054908115611404575082526008602052812054611387904311611605565b61138f6117dc565b611397611c08565b6113b06002546004546000526007602052604060002055565b6113b8611688565b7f00000000000000000000000000000000000000000000000000000000000000007f45806e512b1f4f10e33e8b3cb64d1d11d998d8c554a95e0841fc1c701278bd5d8280a26001815580f35b606490602084519162461bcd60e51b8352820152600f60248201526e139bc8195c1bd8da081d1bc8195b99608a1b6044820152fd5b8490346107a457816003193601126107a4576020906002548152f35b602435906001600160a01b038216820361146b57565b600080fd5b600435906001600160a01b038216820361146b57565b3461146b57600036600319011261146b5760206040517f00000000000000000000000000000000000000000000000000000000000000008152f35b3461146b57600036600319011261146b5760206040517f00000000000000000000000000000000000000000000000000000000000000008152f35b6001546001600160a01b0316330361151057565b60405163118cdaa760e01b8152336004820152602490fd5b67ffffffffffffffff811161153c57604052565b634e487b7160e01b600052604160045260246000fd5b90601f8019910116810190811067ffffffffffffffff82111761153c57604052565b6040516370a0823160e01b81523060048201526020816024817f00000000000000000000000000000000000000000000000000000000000000006001600160a01b03165afa9081156115f9576000916115cb575090565b906020823d82116115f1575b816115e460209383611552565b810103126107a857505190565b3d91506115d7565b6040513d6000823e3d90fd5b1561160c57565b60405162461bcd60e51b815260206004820152600e60248201526d22b837b1b4103737ba1037bb32b960911b6044820152606490fd5b600260005414611653576002600055565b604051633ee5aeb560e01b8152600490fd5b9190820180921161167257565b634e487b7160e01b600052601160045260246000fd5b600454600181018091116116725780600455600060025560006003556116ce7f000000000000000000000000000000000000000000000000000000000000000043611665565b906000526008602052604060002055565b9190820391821161167257565b67ffffffffffffffff811161153c5760051b60200190565b9061170e826116ec565b61171b6040519182611552565b828152809261172c601f19916116ec565b0190602036910137565b805182101561174a5760209160051b010190565b634e487b7160e01b600052603260045260246000fd5b9081602091031261146b5751801515810361146b5790565b6001600160a01b0390911681526080602080830182905283519183018290529260a0830192919084019060005b858282106117c85750505050600160408201526060818303910152600081520190565b8351865294850194909201916001016117a5565b600480546000908015611c03576000198101908111611bf0578082526020600781526040918284205415611bdb576118366003547f00000000000000000000000000000000000000000000000000000000000000006116df565b948515611bc45783516370a0823160e01b815230818301526001600160a01b0391907f00000000000000000000000000000000000000000000000000000000000000008316908581602481855afa908115611ace579089918991611b8f575b5010611b3d576118c47f0000000000000000000000000000000000000000000000000000000000000000611704565b92886118f07f000000000000000000000000000000000000000000000000000000000000000086611736565b52807f00000000000000000000000000000000000000000000000000000000000000001691888851888160448163095ea7b360e01b95868252898b830152806024830152875af18015611b3357611975928a928e92611b16575b508b519081526001600160a01b03871688820190815260208101929092529283918291604090910190565b03818d865af18015611b0c57611aef575b5062015180420192834211611adc57803b15611ad8579160848a92838d97969565ffffffffffff8d5197889687956387517c4560e01b87528b870152807f0000000000000000000000000000000000000000000000000000000000000000169b8c60248801521660448601521660648401525af18015611ace57611abb575b50813b15610c1557918691611a509383885180968195829463bf6ee3fd60e01b84527f0000000000000000000000000000000000000000000000000000000000000000908401611778565b03925af18015611ab157611a99575b508352600990528120805460ff191660011790557f1209e1080cd3a83981de8feb8856cd78637291d5929a806202ca79415225c4289080a2565b611aa38591611528565b611aad5738611a5f565b8380fd5b84513d87823e3d90fd5b611ac790979197611528565b9538611a05565b87513d8a823e3d90fd5b8980fd5b634e487b7160e01b8a526011855260248afd5b611b0590883d8a11610fa757610f978183611552565b5038611986565b89513d8c823e3d90fd5b611b2c90843d8611610fa757610f978183611552565b503861194a565b8a513d8d823e3d90fd5b855162461bcd60e51b8152808301869052602660248201527f4e6f7420656e6f75676820696e63656e746976652062616c616e636520746f20604482015265646f6e61746560d01b6064820152608490fd5b809250878092503d8311611bbd575b611ba88183611552565b81010312611bb95788905138611895565b8780fd5b503d611b9e565b508352600990529020805460ff1916600117905550565b50600990529020805460ff1916600117905550565b506011602492634e487b7160e01b835252fd5b505050565b4760008115611d2e57611c3a7f0000000000000000000000000000000000000000000000000000000000000000611704565b82611c657f000000000000000000000000000000000000000000000000000000000000000083611736565b527f00000000000000000000000000000000000000000000000000000000000000006001600160a01b031690813b1561022c57611cdc8492849260405194858094819363bf6ee3fd60e01b83527f000000000000000000000000000000000000000000000000000000000000000060048401611778565b03925af18015611d2357907f6a105f72bec70df8ca4968fb6316bfbbcc1a488a733ebae3f6088e81652226f39291611d14575b5080a2565b611d1d90611528565b38611d0f565b6040513d84823e3d90fd5b5050565b8181029291811591840414171561167257565b8115611d4f570490565b634e487b7160e01b600052601260045260246000fd5b15611d6c57565b60405162461bcd60e51b815260206004820152601760248201527f4e6f7420656e6f756768204f4c415320726577617264730000000000000000006044820152606490fd5b600454908115611e67576000198201918211611672576000908282526006602052604082209060018060a01b0316908183526020526040822054611e61578282526005602052604082209082526020526040812054918152600760205260408120549082158015611e59575b611e5357506106ed611e50927f000000000000000000000000000000000000000000000000000000000000000090611d32565b90565b91505090565b508115611e1d565b50905090565b5050600090565b15611e7557565b60405162461bcd60e51b815260206004820152602860248201527f4e6f7420656e6f756768204f4c4153207265776172647320746f20706c6179206044820152677468652067616d6560c01b6064820152608490fd5b7f00000000000000000000000000000000000000000000000000000000000000008110611f3757611efd61030d611574565b6002548015611f2957670de0b6b3a76400009182810292818404149015171561167257611e5091611d45565b5050670de0b6b3a764000090565b60405162461bcd60e51b815260206004820152601860248201527f4d696e696d756d20646f6e6174696f6e206e6f74206d657400000000000000006044820152606490fd5b90611fa35750805115611f9157805190602001fd5b604051630a12f52160e11b8152600490fd5b81511580611fd6575b611fb4575090565b604051639996b31560e01b81526001600160a01b039091166004820152602490fd5b50803b15611fac565b6004549060009182526005602052604082209060018060a01b03168252602052604081205490811561204057670de0b6b3a76400008083029283040361202c5750600254611e5091611d45565b634e487b7160e01b81526011600452602490fd5b905090565b600454801561206f5760005260086020526040600020548043101561206f57611e509043906116df565b50600090565b600454801561206f57600019810190811161167257600052600960205260ff604060002054166120db576007602052604060002054156120db57611e506003547f00000000000000000000000000000000000000000000000000000000000000006116df565b60009056fea26469706673582212206b4c6c38b8676caacab5c1e8cad510c5e059eeb374d5abc421e8968f9328839364736f6c63430008140033",
  "devdoc": {
    "errors": {
      "AddressEmptyCode(address)": [
        {
          "details": "There's no code at `target` (it is not a contract)."
        }
      ],
      "AddressInsufficientBalance(address)": [
        {
          "details": "The ETH balance of the account is not enough to perform the operation."
        }
      ],
      "FailedInnerCall()": [
        {
          "details": "A call to an address target failed. The target may have reverted."
        }
      ],
      "OwnableInvalidOwner(address)": [
        {
          "details": "The owner is not a valid owner account. (eg. `address(0)`)"
        }
      ],
      "OwnableUnauthorizedAccount(address)": [
        {
          "details": "The caller account is not authorized to perform an operation."
        }
      ],
      "ReentrancyGuardReentrantCall()": [
        {
          "details": "Unauthorized reentrant call."
        }
      ],
      "SafeERC20FailedOperation(address)": [
        {
          "details": "An operation with an ERC20 token failed."
        }
      ]
    },
    "kind": "dev",
    "methods": {
      "owner()": {
        "details": "Returns the address of the current owner."
      },
      "renounceOwnership()": {
        "details": "Leaves the contract without owner. It will not be possible to call `onlyOwner` functions. Can only be called by the current owner. NOTE: Renouncing ownership will leave the contract without an owner, thereby disabling any functionality that is only available to the owner."
      },
      "transferOwnership(address)": {
        "details": "Transfers ownership of the contract to a new account (`newOwner`). Can only be called by the current owner."
      }
    },
    "version": 1
  },
  "userdoc": {
    "kind": "user",
    "methods": {},
    "version": 1
  },
  "storageLayout": {
    "storage": [
      {
        "astId": 845,
        "contract": "contracts/Staking.sol:DerolasStaking",
        "label": "_status",
        "offset": 0,
        "slot": "0",
        "type": "t_uint256"
      },
      {
        "astId": 8,
        "contract": "contracts/Staking.sol:DerolasStaking",
        "label": "_owner",
        "offset": 0,
        "slot": "1",
        "type": "t_address"
      },
      {
        "astId": 972,
        "contract": "contracts/Staking.sol:DerolasStaking",
        "label": "totalDonated",
        "offset": 0,
        "slot": "2",
        "type": "t_uint256"
      },
      {
        "astId": 974,
        "contract": "contracts/Staking.sol:DerolasStaking",
        "label": "totalClaimed",
        "offset": 0,
        "slot": "3",
        "type": "t_uint256"
      },
      {
        "astId": 977,
        "contract": "contracts/Staking.sol:DerolasStaking",
        "label": "currentEpoch",
        "offset": 0,
        "slot": "4",
        "type": "t_uint256"
      },
      {
        "astId": 986,
        "contract": "contracts/Staking.sol:DerolasStaking",
        "label": "epochToDonations",
        "offset": 0,
        "slot": "5",
        "type": "t_mapping(t_uint256,t_mapping(t_address,t_uint256))"
      },
      {
        "astId": 992,
        "contract": "contracts/Staking.sol:DerolasStaking",
        "label": "epochToClaimed",
        "offset": 0,
        "slot": "6",
        "type": "t_mapping(t_uint256,t_mapping(t_address,t_uint256))"
      },
      {
        "astId": 996,
        "contract": "contracts/Staking.sol:DerolasStaking",
        "label": "epochToTotalDonated",
        "offset": 0,
        "slot": "7",
        "type": "t_mapping(t_uint256,t_uint256)"
      },
      {
        "astId": 1000,
        "contract": "contracts/Staking.sol:DerolasStaking",
        "label": "epochToEndBlock",
        "offset": 0,
        "slot": "8",
        "type": "t_mapping(t_uint256,t_uint256)"
      },
      {
        "astId": 1004,
        "contract": "contracts/Staking.sol:DerolasStaking",
        "label": "epochDonated",
        "offset": 0,
        "slot": "9",
        "type": "t_mapping(t_uint256,t_bool)"
      }
    ],
    "types": {
      "t_address": {
        "encoding": "inplace",
        "label": "address",
        "numberOfBytes": "20"
      },
      "t_bool": {
        "encoding": "inplace",
        "label": "bool",
        "numberOfBytes": "1"
      },
      "t_mapping(t_address,t_uint256)": {
        "encoding": "mapping",
        "key": "t_address",
        "label": "mapping(address => uint256)",
        "numberOfBytes": "32",
        "value": "t_uint256"
      },
      "t_mapping(t_uint256,t_bool)": {
        "encoding": "mapping",
        "key": "t_uint256",
        "label": "mapping(uint256 => bool)",
        "numberOfBytes": "32",
        "value": "t_bool"
      },
      "t_mapping(t_uint256,t_mapping(t_address,t_uint256))": {
        "encoding": "mapping",
        "key": "t_uint256",
        "label": "mapping(uint256 => mapping(address => uint256))",
        "numberOfBytes": "32",
        "value": "t_mapping(t_address,t_uint256)"
      },
      "t_mapping(t_uint256,t_uint256)": {
        "encoding": "mapping",
        "key": "t_uint256",
        "label": "mapping(uint256 => uint256)",
        "numberOfBytes": "32",
        "value": "t_uint256"
      },
      "t_uint256": {
        "encoding": "inplace",
        "label": "uint256",
        "numberOfBytes": "32"
      }
    }
  }
}