{
  "abi": [
    {
      "type": "constructor",
      "inputs": [
        {
          "name": "_minDonation",
          "type": "uint256",
          "internalType": "uint256"
        },
        {
          "name": "_balancerRouter",
          "type": "address",
          "internalType": "address"
        },
        {
          "name": "_balancerVaultAdmin",
          "type": "address",
          "internalType": "address"
        },
        {
          "name": "_poolId",
          "type": "address",
          "internalType": "address"
        },
        {
          "name": "_assetsInPool",
          "type": "uint256",
          "internalType": "uint256"
        },
        {
          "name": "_incentiveTokenAddress",
          "type": "address",
          "internalType": "address"
        },
        {
          "name": "_incentiveTokenIndex",
          "type": "uint256",
          "internalType": "uint256"
        },
        {
          "name": "_wethIndex",
          "type": "uint256",
          "internalType": "uint256"
        },
        {
          "name": "_availableRewards",
          "type": "uint256",
          "internalType": "uint256"
        },
        {
          "name": "_roundLength",
          "type": "uint256",
          "internalType": "uint256"
        }
      ],
      "stateMutability": "nonpayable"
    },
    {
      "type": "receive",
      "stateMutability": "payable"
    },
    {
      "type": "function",
      "name": "MINIMUM_BALANCE_DONATION_AMOUNT",
      "inputs": [],
      "outputs": [
        {
          "name": "",
          "type": "uint256",
          "internalType": "uint256"
        }
      ],
      "stateMutability": "view"
    },
    {
      "type": "function",
      "name": "assetsInPool",
      "inputs": [],
      "outputs": [
        {
          "name": "",
          "type": "uint256",
          "internalType": "uint256"
        }
      ],
      "stateMutability": "view"
    },
    {
      "type": "function",
      "name": "balancerRouter",
      "inputs": [],
      "outputs": [
        {
          "name": "",
          "type": "address",
          "internalType": "address"
        }
      ],
      "stateMutability": "view"
    },
    {
      "type": "function",
      "name": "balancerVaultAdmin",
      "inputs": [],
      "outputs": [
        {
          "name": "",
          "type": "address",
          "internalType": "address"
        }
      ],
      "stateMutability": "view"
    },
    {
      "type": "function",
      "name": "changeOwner",
      "inputs": [
        {
          "name": "newOwner",
          "type": "address",
          "internalType": "address"
        }
      ],
      "outputs": [],
      "stateMutability": "nonpayable"
    },
    {
      "type": "function",
      "name": "changeParams",
      "inputs": [
        {
          "name": "newRoundRewards",
          "type": "uint256",
          "internalType": "uint256"
        },
        {
          "name": "newRoundLength",
          "type": "uint256",
          "internalType": "uint256"
        },
        {
          "name": "minDonation",
          "type": "uint256",
          "internalType": "uint256"
        }
      ],
      "outputs": [],
      "stateMutability": "nonpayable"
    },
    {
      "type": "function",
      "name": "claim",
      "inputs": [],
      "outputs": [],
      "stateMutability": "nonpayable"
    },
    {
      "type": "function",
      "name": "claimable",
      "inputs": [
        {
          "name": "account",
          "type": "address",
          "internalType": "address"
        }
      ],
      "outputs": [
        {
          "name": "",
          "type": "uint256",
          "internalType": "uint256"
        }
      ],
      "stateMutability": "view"
    },
    {
      "type": "function",
      "name": "currentRound",
      "inputs": [],
      "outputs": [
        {
          "name": "",
          "type": "uint256",
          "internalType": "uint256"
        }
      ],
      "stateMutability": "view"
    },
    {
      "type": "function",
      "name": "donate",
      "inputs": [],
      "outputs": [],
      "stateMutability": "payable"
    },
    {
      "type": "function",
      "name": "endRound",
      "inputs": [],
      "outputs": [],
      "stateMutability": "nonpayable"
    },
    {
      "type": "function",
      "name": "epochDonationActivities",
      "inputs": [
        {
          "name": "",
          "type": "address",
          "internalType": "address"
        }
      ],
      "outputs": [
        {
          "name": "",
          "type": "uint256",
          "internalType": "uint256"
        }
      ],
      "stateMutability": "view"
    },
    {
      "type": "function",
      "name": "estimateTicketPercentage",
      "inputs": [
        {
          "name": "donation",
          "type": "uint256",
          "internalType": "uint256"
        }
      ],
      "outputs": [
        {
          "name": "",
          "type": "uint256",
          "internalType": "uint256"
        }
      ],
      "stateMutability": "view"
    },
    {
      "type": "function",
      "name": "getBlocksSinceRoundEnd",
      "inputs": [],
      "outputs": [
        {
          "name": "",
          "type": "uint256",
          "internalType": "uint256"
        }
      ],
      "stateMutability": "view"
    },
    {
      "type": "function",
      "name": "getCurrentShare",
      "inputs": [
        {
          "name": "account",
          "type": "address",
          "internalType": "address"
        }
      ],
      "outputs": [
        {
          "name": "",
          "type": "uint256",
          "internalType": "uint256"
        }
      ],
      "stateMutability": "view"
    },
    {
      "type": "function",
      "name": "getGameState",
      "inputs": [
        {
          "name": "user",
          "type": "address",
          "internalType": "address"
        }
      ],
      "outputs": [
        {
          "name": "state",
          "type": "tuple",
          "internalType": "struct GameState",
          "components": [
            {
              "name": "roundLength",
              "type": "uint256",
              "internalType": "uint256"
            },
            {
              "name": "currentRound",
              "type": "uint256",
              "internalType": "uint256"
            },
            {
              "name": "roundEndBlock",
              "type": "uint256",
              "internalType": "uint256"
            },
            {
              "name": "minimumDonation",
              "type": "uint256",
              "internalType": "uint256"
            },
            {
              "name": "blocksRemaining",
              "type": "uint256",
              "internalType": "uint256"
            },
            {
              "name": "roundRewards",
              "type": "uint256",
              "internalType": "uint256"
            },
            {
              "name": "totalDonated",
              "type": "uint256",
              "internalType": "uint256"
            },
            {
              "name": "totalClaimed",
              "type": "uint256",
              "internalType": "uint256"
            },
            {
              "name": "incentiveBalance",
              "type": "uint256",
              "internalType": "uint256"
            },
            {
              "name": "userCurrentDonation",
              "type": "uint256",
              "internalType": "uint256"
            },
            {
              "name": "userCurrentShare",
              "type": "uint256",
              "internalType": "uint256"
            },
            {
              "name": "userClaimable",
              "type": "uint256",
              "internalType": "uint256"
            },
            {
              "name": "hasClaimed",
              "type": "bool",
              "internalType": "bool"
            },
            {
              "name": "canPlayGame",
              "type": "bool",
              "internalType": "bool"
            }
          ]
        }
      ],
      "stateMutability": "view"
    },
    {
      "type": "function",
      "name": "getMultisigNonces",
      "inputs": [
        {
          "name": "multisig",
          "type": "address",
          "internalType": "address"
        }
      ],
      "outputs": [
        {
          "name": "nonces",
          "type": "uint256[]",
          "internalType": "uint256[]"
        }
      ],
      "stateMutability": "view"
    },
    {
      "type": "function",
      "name": "getRemainingRoundLength",
      "inputs": [],
      "outputs": [
        {
          "name": "remainingRoundLength",
          "type": "uint256",
          "internalType": "uint256"
        }
      ],
      "stateMutability": "view"
    },
    {
      "type": "function",
      "name": "getRoundProgress",
      "inputs": [],
      "outputs": [
        {
          "name": "",
          "type": "uint256",
          "internalType": "uint256"
        }
      ],
      "stateMutability": "view"
    },
    {
      "type": "function",
      "name": "incentiveTokenAddress",
      "inputs": [],
      "outputs": [
        {
          "name": "",
          "type": "address",
          "internalType": "address"
        }
      ],
      "stateMutability": "view"
    },
    {
      "type": "function",
      "name": "incentiveTokenIndex",
      "inputs": [],
      "outputs": [
        {
          "name": "",
          "type": "uint256",
          "internalType": "uint256"
        }
      ],
      "stateMutability": "view"
    },
    {
      "type": "function",
      "name": "isRatioPass",
      "inputs": [
        {
          "name": "curNonces",
          "type": "uint256[]",
          "internalType": "uint256[]"
        },
        {
          "name": "lastNonces",
          "type": "uint256[]",
          "internalType": "uint256[]"
        },
        {
          "name": "",
          "type": "uint256",
          "internalType": "uint256"
        }
      ],
      "outputs": [
        {
          "name": "ratioPass",
          "type": "bool",
          "internalType": "bool"
        }
      ],
      "stateMutability": "view"
    },
    {
      "type": "function",
      "name": "owner",
      "inputs": [],
      "outputs": [
        {
          "name": "",
          "type": "address",
          "internalType": "address"
        }
      ],
      "stateMutability": "view"
    },
    {
      "type": "function",
      "name": "paramsUpdateRequested",
      "inputs": [],
      "outputs": [
        {
          "name": "",
          "type": "bool",
          "internalType": "bool"
        }
      ],
      "stateMutability": "view"
    },
    {
      "type": "function",
      "name": "permit2",
      "inputs": [],
      "outputs": [
        {
          "name": "",
          "type": "address",
          "internalType": "address"
        }
      ],
      "stateMutability": "view"
    },
    {
      "type": "function",
      "name": "poolId",
      "inputs": [],
      "outputs": [
        {
          "name": "",
          "type": "address",
          "internalType": "address"
        }
      ],
      "stateMutability": "view"
    },
    {
      "type": "function",
      "name": "roundPoints",
      "inputs": [
        {
          "name": "",
          "type": "uint256",
          "internalType": "uint256"
        }
      ],
      "outputs": [
        {
          "name": "availableRewards",
          "type": "uint256",
          "internalType": "uint256"
        },
        {
          "name": "totalDonated",
          "type": "uint256",
          "internalType": "uint256"
        },
        {
          "name": "totalClaimed",
          "type": "uint256",
          "internalType": "uint256"
        },
        {
          "name": "length",
          "type": "uint256",
          "internalType": "uint256"
        },
        {
          "name": "minDonation",
          "type": "uint256",
          "internalType": "uint256"
        },
        {
          "name": "endBlock",
          "type": "uint256",
          "internalType": "uint256"
        }
      ],
      "stateMutability": "view"
    },
    {
      "type": "function",
      "name": "roundToClaimed",
      "inputs": [
        {
          "name": "",
          "type": "uint256",
          "internalType": "uint256"
        },
        {
          "name": "",
          "type": "address",
          "internalType": "address"
        }
      ],
      "outputs": [
        {
          "name": "",
          "type": "uint256",
          "internalType": "uint256"
        }
      ],
      "stateMutability": "view"
    },
    {
      "type": "function",
      "name": "roundToDonations",
      "inputs": [
        {
          "name": "",
          "type": "uint256",
          "internalType": "uint256"
        },
        {
          "name": "",
          "type": "address",
          "internalType": "address"
        }
      ],
      "outputs": [
        {
          "name": "",
          "type": "uint256",
          "internalType": "uint256"
        }
      ],
      "stateMutability": "view"
    },
    {
      "type": "function",
      "name": "topUpIncentiveBalance",
      "inputs": [
        {
          "name": "amount",
          "type": "uint256",
          "internalType": "uint256"
        }
      ],
      "outputs": [],
      "stateMutability": "nonpayable"
    },
    {
      "type": "function",
      "name": "wethIndex",
      "inputs": [],
      "outputs": [
        {
          "name": "",
          "type": "uint256",
          "internalType": "uint256"
        }
      ],
      "stateMutability": "view"
    },
    {
      "type": "function",
      "name": "withdrawIncentiveTokenBalance",
      "inputs": [],
      "outputs": [],
      "stateMutability": "nonpayable"
    },
    {
      "type": "event",
      "name": "AuctionEnded",
      "inputs": [
        {
          "name": "roundCounter",
          "type": "uint256",
          "indexed": true,
          "internalType": "uint256"
        },
        {
          "name": "totalRoundDonations",
          "type": "uint256",
          "indexed": true,
          "internalType": "uint256"
        },
        {
          "name": "totalRoundClaimed",
          "type": "uint256",
          "indexed": true,
          "internalType": "uint256"
        },
        {
          "name": "availableRewards",
          "type": "uint256",
          "indexed": false,
          "internalType": "uint256"
        }
      ],
      "anonymous": false
    },
    {
      "type": "event",
      "name": "DonationReceived",
      "inputs": [
        {
          "name": "donatorAddress",
          "type": "address",
          "indexed": true,
          "internalType": "address"
        },
        {
          "name": "amount",
          "type": "uint256",
          "indexed": true,
          "internalType": "uint256"
        }
      ],
      "anonymous": false
    },
    {
      "type": "event",
      "name": "EthDonatedToBalancer",
      "inputs": [
        {
          "name": "amount",
          "type": "uint256",
          "indexed": true,
          "internalType": "uint256"
        }
      ],
      "anonymous": false
    },
    {
      "type": "event",
      "name": "OwnerUpdated",
      "inputs": [
        {
          "name": "owner",
          "type": "address",
          "indexed": true,
          "internalType": "address"
        }
      ],
      "anonymous": false
    },
    {
      "type": "event",
      "name": "ParamsUpdated",
      "inputs": [
        {
          "name": "nextRound",
          "type": "uint256",
          "indexed": true,
          "internalType": "uint256"
        },
        {
          "name": "availableRewards",
          "type": "uint256",
          "indexed": false,
          "internalType": "uint256"
        },
        {
          "name": "roundLength",
          "type": "uint256",
          "indexed": false,
          "internalType": "uint256"
        },
        {
          "name": "minDonation",
          "type": "uint256",
          "indexed": false,
          "internalType": "uint256"
        }
      ],
      "anonymous": false
    },
    {
      "type": "event",
      "name": "RewardsClaimed",
      "inputs": [
        {
          "name": "donatorAddress",
          "type": "address",
          "indexed": true,
          "internalType": "address"
        },
        {
          "name": "amount",
          "type": "uint256",
          "indexed": true,
          "internalType": "uint256"
        }
      ],
      "anonymous": false
    },
    {
      "type": "event",
      "name": "TopUpIncentiveReceived",
      "inputs": [
        {
          "name": "amount",
          "type": "uint256",
          "indexed": true,
          "internalType": "uint256"
        }
      ],
      "anonymous": false
    },
    {
      "type": "event",
      "name": "UnclaimedIncentiveTokensDonated",
      "inputs": [
        {
          "name": "amount",
          "type": "uint256",
          "indexed": true,
          "internalType": "uint256"
        }
      ],
      "anonymous": false
    },
    {
      "type": "error",
      "name": "TokenTransferFailed",
      "inputs": [
        {
          "name": "token",
          "type": "address",
          "internalType": "address"
        },
        {
          "name": "from",
          "type": "address",
          "internalType": "address"
        },
        {
          "name": "to",
          "type": "address",
          "internalType": "address"
        },
        {
          "name": "value",
          "type": "uint256",
          "internalType": "uint256"
        }
      ]
    }
  ],
  "bytecode": "0x",
  "deployedBytecode": {
    "object": "0x6080604052600436106101de575f3560e01c80638515697a116100fd578063b2cb3a9b11610092578063d564c4bf11610062578063d564c4bf146106a7578063d9d60b52146106d3578063ed88c68e146106ff578063f0cf14f414610707575f5ffd5b8063b2cb3a9b146105bb578063b99ab0ad146105da578063bc5df1aa14610655578063c9a97ec814610688575f5ffd5b80638da5cb5b116100cd5780638da5cb5b146105265780638f1f6bc7146105525780639c89ae3814610588578063a6f9dae11461059c575f5ffd5b80638515697a146104a157806385de7ff6146104c05780638a19c8bc146104df5780638c3e5a06146104f3575f5ffd5b8063415ad1d7116101735780634e71d92d116101435780634e71d92d1461044f57806360c1328614610465578063678c2c3e14610479578063749aa2d91461048d575f5ffd5b8063415ad1d714610382578063417da65a146103b557806349ec8b38146103e65780634d6180ae14610419575f5ffd5b8063318bf475116101ae578063318bf475146102ca57806337b19790146102fd5780633e0dc34e14610330578063402914f514610363575f5ffd5b8063118f4348146101e957806312261ee714610210578063184023a51461026857806320263e8714610297575f5ffd5b366101e557005b5f5ffd5b3480156101f4575f5ffd5b506101fd610732565b6040519081526020015b60405180910390f35b34801561021b575f5ffd5b506102437f000000000000000000000000000000000000000000000000000000000000000081565b60405173ffffffffffffffffffffffffffffffffffffffff9091168152602001610207565b348015610273575f5ffd5b5061028761028236600461272c565b610765565b6040519015158152602001610207565b3480156102a2575f5ffd5b506102437f000000000000000000000000000000000000000000000000000000000000000081565b3480156102d5575f5ffd5b506101fd7f000000000000000000000000000000000000000000000000000000000000000081565b348015610308575f5ffd5b506101fd7f000000000000000000000000000000000000000000000000000000000000000081565b34801561033b575f5ffd5b506102437f000000000000000000000000000000000000000000000000000000000000000081565b34801561036e575f5ffd5b506101fd61037d3660046127c2565b6107ab565b34801561038d575f5ffd5b506101fd7f000000000000000000000000000000000000000000000000000000000000000081565b3480156103c0575f5ffd5b506001546102879074010000000000000000000000000000000000000000900460ff1681565b3480156103f1575f5ffd5b506102437f000000000000000000000000000000000000000000000000000000000000000081565b348015610424575f5ffd5b506101fd6104333660046127db565b600360209081525f928352604080842090915290825290205481565b34801561045a575f5ffd5b50610463610882565b005b348015610470575f5ffd5b50610463610b43565b348015610484575f5ffd5b506101fd610d4b565b348015610498575f5ffd5b50610463610daf565b3480156104ac575f5ffd5b506101fd6104bb366004612805565b610fc6565b3480156104cb575f5ffd5b506104636104da366004612805565b6111e3565b3480156104ea575f5ffd5b506101fd5f5481565b3480156104fe575f5ffd5b506101fd7f000000000000000000000000000000000000000000000000000000000000000081565b348015610531575f5ffd5b506001546102439073ffffffffffffffffffffffffffffffffffffffff1681565b34801561055d575f5ffd5b506101fd61056c3660046127db565b600460209081525f928352604080842090915290825290205481565b348015610593575f5ffd5b506101fd6112a5565b3480156105a7575f5ffd5b506104636105b63660046127c2565b611309565b3480156105c6575f5ffd5b506101fd6105d53660046127c2565b611475565b3480156105e5575f5ffd5b506106286105f4366004612805565b600560208190525f918252604090912080546001820154600283015460038401546004850154949095015492949193909286565b604080519687526020870195909552938501929092526060840152608083015260a082015260c001610207565b348015610660575f5ffd5b506102437f000000000000000000000000000000000000000000000000000000000000000081565b348015610693575f5ffd5b506104636106a236600461281c565b6114d9565b3480156106b2575f5ffd5b506106c66106c13660046127c2565b611611565b604051610207919061287f565b3480156106de575f5ffd5b506106f26106ed3660046127c2565b61167b565b6040516102079190612891565b610463611a10565b348015610712575f5ffd5b506101fd6107213660046127c2565b60066020525f908152604090205481565b5f60055f60015f546107449190612972565b81526020019081526020015f2060050154436107609190612972565b905090565b5f825f815181106107785761077861298b565b6020026020010151845f815181106107925761079261298b565b602002602001015111156107a4575060015b9392505050565b5f5f60015f546107bb9190612972565b5f81815260036020908152604080832073ffffffffffffffffffffffffffffffffffffffff8816845282528083205484845260059092529091206001015491925090811580610808575080155b1561081757505f949350505050565b5f83815260056020526040812054829061083190856129b8565b61083b91906129cf565b5f85815260046020908152604080832073ffffffffffffffffffffffffffffffffffffffff8b1684529091529020549091506108778183612972565b979650505050505050565b6002546001146108f3576040517f08c379a000000000000000000000000000000000000000000000000000000000815260206004820152600f60248201527f5265656e7472616e63794775617264000000000000000000000000000000000060448201526064015b60405180910390fd5b600280555f805461090690600190612972565b5f81815260036020908152604080832033808552908352818420548585526005845282852060010154600485528386209286529190935292205492935091156109ab576040517f08c379a000000000000000000000000000000000000000000000000000000000815260206004820152600f60248201527f416c726561647920636c61696d6564000000000000000000000000000000000060448201526064016108ea565b5f8211610a14576040517f08c379a000000000000000000000000000000000000000000000000000000000815260206004820152601160248201527f4e6f20646f6e6174696f6e20666f756e6400000000000000000000000000000060448201526064016108ea565b5f838152600560205260408120548290610a2e90856129b8565b610a3891906129cf565b90505f8111610aa3576040517f08c379a000000000000000000000000000000000000000000000000000000000815260206004820152601060248201527f4e6f7468696e6720746f20636c61696d0000000000000000000000000000000060448201526064016108ea565b5f8481526004602090815260408083203384528252808320849055868352600590915281206002018054839290610adb908490612a07565b90915550610b0c90507f00000000000000000000000000000000000000000000000000000000000000003383611def565b604051819033907ffc30cddea38e2bf4d6ea7d3f9ed3b6ad7f176419f4963bd81318067a4aee73fe905f90a3505060016002555050565b60015473ffffffffffffffffffffffffffffffffffffffff163314610bc4576040517f08c379a000000000000000000000000000000000000000000000000000000000815260206004820152601460248201527f556e617574686f72697a6564206163636f756e7400000000000000000000000060448201526064016108ea565b6040517f70a082310000000000000000000000000000000000000000000000000000000081523060048201525f907f000000000000000000000000000000000000000000000000000000000000000073ffffffffffffffffffffffffffffffffffffffff16906370a0823190602401602060405180830381865afa158015610c4e573d5f5f3e3d5ffd5b505050506040513d601f19601f82011682018060405250810190610c729190612a1a565b90505f8111610d03576040517f08c379a000000000000000000000000000000000000000000000000000000000815260206004820152602660248201527f4e6f20696e63656e7469766520746f6b656e2062616c616e636520746f20776960448201527f746864726177000000000000000000000000000000000000000000000000000060648201526084016108ea565b600154610d48907f00000000000000000000000000000000000000000000000000000000000000009073ffffffffffffffffffffffffffffffffffffffff1683611def565b50565b5f805481600581610d5d600185612972565b81526020019081526020015f206005015443610d799190612972565b5f83815260056020526040902060030154909150808210610d9d575f935050505090565b610da78282612972565b935050505090565b600254600114610e1b576040517f08c379a000000000000000000000000000000000000000000000000000000000815260206004820152600f60248201527f5265656e7472616e63794775617264000000000000000000000000000000000060448201526064016108ea565b600280555f805490610e2e600183612972565b5f8381526005602081905260408083206003015484845292200154919250610e5591612a07565b4311610ebd576040517f08c379a000000000000000000000000000000000000000000000000000000000815260206004820152600e60248201527f526f756e64206e6f74206f76657200000000000000000000000000000000000060448201526064016108ea565b610ec681611ec1565b610ece612391565b5f610eda836001612a07565b60015490915074010000000000000000000000000000000000000000900460ff16610f31575f8381526005602052604080822080548484529190922090815560038083015490820155600491820154910155610f5a565b600180547fffffffffffffffffffffff00ffffffffffffffffffffffffffffffffffffffff1690555b5f8381526005602081815260408084204393810193909355848455858452808420600201549387905260018301549254905190815286917f6cd5fa5a40ecd594f53649fa439e8f39cb2abf70e69eb744d79b8553c7d19788910160405180910390a45050600160025550565b5f805480825260056020526040822060040154831015611042576040517f08c379a000000000000000000000000000000000000000000000000000000000815260206004820152601860248201527f4d696e696d756d20646f6e6174696f6e206e6f74206d6574000000000000000060448201526064016108ea565b5f81815260056020526040908190205490517f70a082310000000000000000000000000000000000000000000000000000000081523060048201527f000000000000000000000000000000000000000000000000000000000000000073ffffffffffffffffffffffffffffffffffffffff16906370a0823190602401602060405180830381865afa1580156110d9573d5f5f3e3d5ffd5b505050506040513d601f19601f820116820180604052508101906110fd9190612a1a565b101561118b576040517f08c379a000000000000000000000000000000000000000000000000000000000815260206004820152602360248201527f4e6f7420656e6f756768207265776172647320746f20706c617920746865206760448201527f616d65000000000000000000000000000000000000000000000000000000000060648201526084016108ea565b5f81815260056020526040812060010154908190036111b55750670de0b6b3a76400009392505050565b6111bf8482612a07565b6111d185670de0b6b3a76400006129b8565b6111db91906129cf565b949350505050565b5f811161124c576040517f08c379a000000000000000000000000000000000000000000000000000000000815260206004820152601d60248201527f416d6f756e74206d7573742062652067726561746572207468616e203000000060448201526064016108ea565b6112787f0000000000000000000000000000000000000000000000000000000000000000333084612556565b60405181907f084165e47a829e3a6faacb01bbc2c4773f890d5fba948b3d2ab5ffb003f2434f905f90a250565b5f8054816005816112b7600185612972565b81526020019081526020015f2060050154436112d39190612972565b5f83815260056020526040902060030154909150808211156112f3578091505b806112ff8360646129b8565b610da791906129cf565b60015473ffffffffffffffffffffffffffffffffffffffff16331461138a576040517f08c379a000000000000000000000000000000000000000000000000000000000815260206004820152601460248201527f556e617574686f72697a6564206163636f756e7400000000000000000000000060448201526064016108ea565b73ffffffffffffffffffffffffffffffffffffffff8116611407576040517f08c379a000000000000000000000000000000000000000000000000000000000815260206004820152600c60248201527f5a65726f2061646472657373000000000000000000000000000000000000000060448201526064016108ea565b600180547fffffffffffffffffffffffff00000000000000000000000000000000000000001673ffffffffffffffffffffffffffffffffffffffff83169081179091556040517f4ffd725fc4a22075e9ec71c59edf9c38cdeb588a91b24fc5b61388c5be41282b905f90a250565b5f805480825260036020908152604080842073ffffffffffffffffffffffffffffffffffffffff861685529091528220548083036114b657505f9392505050565b5f828152600560205260409020600101546111d182670de0b6b3a76400006129b8565b60015473ffffffffffffffffffffffffffffffffffffffff16331461155a576040517f08c379a000000000000000000000000000000000000000000000000000000000815260206004820152601460248201527f556e617574686f72697a6564206163636f756e7400000000000000000000000060448201526064016108ea565b5f8054611568906001612a07565b5f8181526005602090815260409182902087815560038101879055600401859055600180547fffffffffffffffffffffff00ffffffffffffffffffffffffffffffffffffffff1674010000000000000000000000000000000000000000179055815187815290810186905290810184905290915081907f12a7025c39c132ef283c80c5db2fc1a564c96bf8fc3ca7af8e3cd63842c3a3499060600160405180910390a250505050565b6040805160018082528183019092526060916020808301908036833750505073ffffffffffffffffffffffffffffffffffffffff83165f9081526006602052604081205482519293509183919061166a5761166a61298b565b602002602001018181525050919050565b6116e3604051806101c001604052805f81526020015f81526020015f81526020015f81526020015f81526020015f81526020015f81526020015f81526020015f81526020015f81526020015f81526020015f81526020015f151581526020015f151581525090565b5f805480825260056020818152604084206003810154865290850183905260048101546060860152805460a086015260018082015460c0870152600282015460e087015292939092909190829061173a9086612972565b81526020019081526020015f2060050154905081600301548161175d9190612a07565b604085018190524310156117815743846040015161177b9190612972565b60808501525b6040517f70a082310000000000000000000000000000000000000000000000000000000081523060048201527f000000000000000000000000000000000000000000000000000000000000000073ffffffffffffffffffffffffffffffffffffffff16906370a0823190602401602060405180830381865afa158015611809573d5f5f3e3d5ffd5b505050506040513d601f19601f8201168201806040525081019061182d9190612a1a565b6101008501525f83815260036020908152604080832073ffffffffffffffffffffffffffffffffffffffff89168085529252918290205461012087015290517fb2cb3a9b0000000000000000000000000000000000000000000000000000000081526004810191909152309063b2cb3a9b90602401602060405180830381865afa1580156118bd573d5f5f3e3d5ffd5b505050506040513d601f19601f820116820180604052508101906118e19190612a1a565b6101408501525f6118f3600185612972565b5f81815260046020908152604080832073ffffffffffffffffffffffffffffffffffffffff8b16845282528083205415156101808a01528383526005918290529091200154909150156119d3576040517f402914f500000000000000000000000000000000000000000000000000000000815273ffffffffffffffffffffffffffffffffffffffff87166004820152309063402914f590602401602060405180830381865afa1580156119a8573d5f5f3e3d5ffd5b505050506040513d601f19601f820116820180604052508101906119cc9190612a1a565b6101608601525b6101208501511580156119ef57508460a0015185610100015110155b80156119fe5750846040015143105b15156101a08601525092949350505050565b600254600114611a7c576040517f08c379a000000000000000000000000000000000000000000000000000000000815260206004820152600f60248201527f5265656e7472616e63794775617264000000000000000000000000000000000060448201526064016108ea565b600280555f80548082526005602052604090912060040154341015611b23576040517f08c379a000000000000000000000000000000000000000000000000000000000815260206004820152603160248201527f446f6e6174696f6e20616d6f756e74206973206c657373207468616e2074686560448201527f206d696e696d756d20646f6e6174696f6e00000000000000000000000000000060648201526084016108ea565b5f81815260056020526040908190205490517f70a082310000000000000000000000000000000000000000000000000000000081523060048201527f000000000000000000000000000000000000000000000000000000000000000073ffffffffffffffffffffffffffffffffffffffff16906370a0823190602401602060405180830381865afa158015611bba573d5f5f3e3d5ffd5b505050506040513d601f19601f82011682018060405250810190611bde9190612a1a565b1015611c6c576040517f08c379a000000000000000000000000000000000000000000000000000000000815260206004820152602360248201527f4e6f7420656e6f756768207265776172647320746f20706c617920746865206760448201527f616d65000000000000000000000000000000000000000000000000000000000060648201526084016108ea565b5f81815260036020908152604080832033845290915290205415611cec576040517f08c379a000000000000000000000000000000000000000000000000000000000815260206004820152601a60248201527f416c726561647920646f6e61746564207468697320726f756e6400000000000060448201526064016108ea565b5f611cf5610d4b565b11611d5c576040517f08c379a000000000000000000000000000000000000000000000000000000000815260206004820152600f60248201527f526f756e642068617320656e646564000000000000000000000000000000000060448201526064016108ea565b5f8181526005602052604081206001018054349290611d7c908490612a07565b90915550505f8181526003602090815260408083203384528252808320349081905560069092528220805491929091611db6908490612a07565b9091555050604051349033907f264f630d9efa0d07053a31163641d9fcc0adafc9d9e76f1c37c2ce3a558d2c52905f90a3506001600255565b5f6040517fa9059cbb000000000000000000000000000000000000000000000000000000005f5273ffffffffffffffffffffffffffffffffffffffff84166004528260245260205f60445f5f895af13d15601f3d1160015f511416171691505f606052806040525080611ebb576040517fabae3d6d00000000000000000000000000000000000000000000000000000000815273ffffffffffffffffffffffffffffffffffffffff808616600483015230602483015284166044820152606481018390526084016108ea565b50505050565b5f81815260056020526040812060028101549054611edf9190612972565b5f838152600560205260409020600101549091507f0000000000000000000000000000000000000000000000000000000000000000821080611f1f575080155b15611f2957505050565b5f7f000000000000000000000000000000000000000000000000000000000000000067ffffffffffffffff811115611f6357611f63612645565b604051908082528060200260200182016040528015611f8c578160200160208202803683370190505b50905082817f000000000000000000000000000000000000000000000000000000000000000081518110611fc257611fc261298b565b60209081029190910101526040517f095ea7b300000000000000000000000000000000000000000000000000000000815273ffffffffffffffffffffffffffffffffffffffff7f0000000000000000000000000000000000000000000000000000000000000000811660048301525f60248301527f0000000000000000000000000000000000000000000000000000000000000000169063095ea7b3906044016020604051808303815f875af115801561207e573d5f5f3e3d5ffd5b505050506040513d601f19601f820116820180604052508101906120a29190612a31565b506040517f095ea7b300000000000000000000000000000000000000000000000000000000815273ffffffffffffffffffffffffffffffffffffffff7f000000000000000000000000000000000000000000000000000000000000000081166004830152602482018590527f0000000000000000000000000000000000000000000000000000000000000000169063095ea7b3906044016020604051808303815f875af1158015612155573d5f5f3e3d5ffd5b505050506040513d601f19601f820116820180604052508101906121799190612a31565b5073ffffffffffffffffffffffffffffffffffffffff7f0000000000000000000000000000000000000000000000000000000000000000166387517c457f00000000000000000000000000000000000000000000000000000000000000007f0000000000000000000000000000000000000000000000000000000000000000866122064262015180612a07565b6040517fffffffff0000000000000000000000000000000000000000000000000000000060e087901b16815273ffffffffffffffffffffffffffffffffffffffff948516600482015292841660248401529216604482015265ffffffffffff90911660648201526084015f604051808303815f87803b158015612287575f5ffd5b505af1158015612299573d5f5f3e3d5ffd5b50506040517fbf6ee3fd00000000000000000000000000000000000000000000000000000000815273ffffffffffffffffffffffffffffffffffffffff7f000000000000000000000000000000000000000000000000000000000000000016925063bf6ee3fd9150612334907f0000000000000000000000000000000000000000000000000000000000000000908590600190600401612a50565b5f604051808303815f87803b15801561234b575f5ffd5b505af115801561235d573d5f5f3e3d5ffd5b50506040518592507ff2092fa360386c48bdcf4bbd9eb0512e6288744a8664acf38aead698368bb19291505f90a250505050565b477f00000000000000000000000000000000000000000000000000000000000000008110156123bd5750565b5f7f000000000000000000000000000000000000000000000000000000000000000067ffffffffffffffff8111156123f7576123f7612645565b604051908082528060200260200182016040528015612420578160200160208202803683370190505b50905081817f0000000000000000000000000000000000000000000000000000000000000000815181106124565761245661298b565b60209081029190910101526040517fbf6ee3fd00000000000000000000000000000000000000000000000000000000815273ffffffffffffffffffffffffffffffffffffffff7f0000000000000000000000000000000000000000000000000000000000000000169063bf6ee3fd9084906124fa907f0000000000000000000000000000000000000000000000000000000000000000908690600190600401612a50565b5f604051808303818588803b158015612511575f5ffd5b505af1158015612523573d5f5f3e3d5ffd5b50506040518593507f6a105f72bec70df8ca4968fb6316bfbbcc1a488a733ebae3f6088e81652226f392505f9150a25050565b5f6040517f23b872dd000000000000000000000000000000000000000000000000000000005f5273ffffffffffffffffffffffffffffffffffffffff851660045273ffffffffffffffffffffffffffffffffffffffff84166024528260445260205f60645f5f8a5af13d15601f3d1160015f511416171691505f60605280604052508061263e576040517fabae3d6d00000000000000000000000000000000000000000000000000000000815273ffffffffffffffffffffffffffffffffffffffff8087166004830152808616602483015284166044820152606481018390526084016108ea565b5050505050565b7f4e487b71000000000000000000000000000000000000000000000000000000005f52604160045260245ffd5b5f82601f830112612681575f5ffd5b813567ffffffffffffffff81111561269b5761269b612645565b8060051b6040517fffffffffffffffffffffffffffffffffffffffffffffffffffffffffffffffe0603f830116810181811067ffffffffffffffff821117156126e6576126e6612645565b604052918252602081850181019290810186841115612703575f5ffd5b6020860192505b8383101561272257823581526020928301920161270a565b5095945050505050565b5f5f5f6060848603121561273e575f5ffd5b833567ffffffffffffffff811115612754575f5ffd5b61276086828701612672565b935050602084013567ffffffffffffffff81111561277c575f5ffd5b61278886828701612672565b93969395505050506040919091013590565b803573ffffffffffffffffffffffffffffffffffffffff811681146127bd575f5ffd5b919050565b5f602082840312156127d2575f5ffd5b6107a48261279a565b5f5f604083850312156127ec575f5ffd5b823591506127fc6020840161279a565b90509250929050565b5f60208284031215612815575f5ffd5b5035919050565b5f5f5f6060848603121561282e575f5ffd5b505081359360208301359350604090920135919050565b5f8151808452602084019350602083015f5b82811015612875578151865260209586019590910190600101612857565b5093949350505050565b602081525f6107a46020830184612845565b5f6101c082019050825182526020830151602083015260408301516040830152606083015160608301526080830151608083015260a083015160a083015260c083015160c083015260e083015160e083015261010083015161010083015261012083015161012083015261014083015161014083015261016083015161016083015261018083015161292861018084018215159052565b506101a083015161293e6101a084018215159052565b5092915050565b7f4e487b71000000000000000000000000000000000000000000000000000000005f52601160045260245ffd5b8181038181111561298557612985612945565b92915050565b7f4e487b71000000000000000000000000000000000000000000000000000000005f52603260045260245ffd5b808202811582820484141761298557612985612945565b5f82612a02577f4e487b71000000000000000000000000000000000000000000000000000000005f52601260045260245ffd5b500490565b8082018082111561298557612985612945565b5f60208284031215612a2a575f5ffd5b5051919050565b5f60208284031215612a41575f5ffd5b815180151581146107a4575f5ffd5b73ffffffffffffffffffffffffffffffffffffffff84168152608060208201525f612a7e6080830185612845565b9215156040830152508082036060909101525f81526020019291505056fea2646970667358221220ae0e66df6cc8f1371f89d9e65058262a75d42506f263dd68b4c704db7014033864736f6c634300081e0033",
    "linkReferences": {},
    "immutableReferences": {
      "107": [
        {
          "start": 782,
          "length": 32
        },
        {
          "start": 7925,
          "length": 32
        },
        {
          "start": 9108,
          "length": 32
        }
      ],
      "109": [
        {
          "start": 915,
          "length": 32
        },
        {
          "start": 7980,
          "length": 32
        },
        {
          "start": 9152,
          "length": 32
        }
      ],
      "111": [
        {
          "start": 731,
          "length": 32
        },
        {
          "start": 8083,
          "length": 32
        }
      ],
      "113": [
        {
          "start": 1284,
          "length": 32
        },
        {
          "start": 9255,
          "length": 32
        }
      ],
      "115": [
        {
          "start": 680,
          "length": 32
        },
        {
          "start": 2790,
          "length": 32
        },
        {
          "start": 3060,
          "length": 32
        },
        {
          "start": 3340,
          "length": 32
        },
        {
          "start": 4223,
          "length": 32
        },
        {
          "start": 4689,
          "length": 32
        },
        {
          "start": 6063,
          "length": 32
        },
        {
          "start": 7008,
          "length": 32
        },
        {
          "start": 8248,
          "length": 32
        },
        {
          "start": 8463,
          "length": 32
        },
        {
          "start": 8632,
          "length": 32
        }
      ],
      "117": [
        {
          "start": 1015,
          "length": 32
        },
        {
          "start": 8665,
          "length": 32
        },
        {
          "start": 8920,
          "length": 32
        },
        {
          "start": 9374,
          "length": 32
        }
      ],
      "119": [
        {
          "start": 1638,
          "length": 32
        }
      ],
      "121": [
        {
          "start": 833,
          "length": 32
        },
        {
          "start": 8967,
          "length": 32
        },
        {
          "start": 9421,
          "length": 32
        }
      ],
      "123": [
        {
          "start": 545,
          "length": 32
        },
        {
          "start": 8202,
          "length": 32
        },
        {
          "start": 8416,
          "length": 32
        },
        {
          "start": 8593,
          "length": 32
        }
      ]
    }
  },
  "methodIdentifiers": {
    "MINIMUM_BALANCE_DONATION_AMOUNT()": "37b19790",
    "assetsInPool()": "415ad1d7",
    "balancerRouter()": "49ec8b38",
    "balancerVaultAdmin()": "bc5df1aa",
    "changeOwner(address)": "a6f9dae1",
    "changeParams(uint256,uint256,uint256)": "c9a97ec8",
    "claim()": "4e71d92d",
    "claimable(address)": "402914f5",
    "currentRound()": "8a19c8bc",
    "donate()": "ed88c68e",
    "endRound()": "749aa2d9",
    "epochDonationActivities(address)": "f0cf14f4",
    "estimateTicketPercentage(uint256)": "8515697a",
    "getBlocksSinceRoundEnd()": "118f4348",
    "getCurrentShare(address)": "b2cb3a9b",
    "getGameState(address)": "d9d60b52",
    "getMultisigNonces(address)": "d564c4bf",
    "getRemainingRoundLength()": "678c2c3e",
    "getRoundProgress()": "9c89ae38",
    "incentiveTokenAddress()": "20263e87",
    "incentiveTokenIndex()": "318bf475",
    "isRatioPass(uint256[],uint256[],uint256)": "184023a5",
    "owner()": "8da5cb5b",
    "paramsUpdateRequested()": "417da65a",
    "permit2()": "12261ee7",
    "poolId()": "3e0dc34e",
    "roundPoints(uint256)": "b99ab0ad",
    "roundToClaimed(uint256,address)": "8f1f6bc7",
    "roundToDonations(uint256,address)": "4d6180ae",
    "topUpIncentiveBalance(uint256)": "85de7ff6",
    "wethIndex()": "8c3e5a06",
    "withdrawIncentiveTokenBalance()": "60c13286"
  },
  "id": 0,
  "address": "0xa6D763592f02699de751d03d7Cb41388D3572909"
}